{
  "contractName": "LushVault",
  "abi": [
    {
      "inputs": [
        {
          "internalType": "string",
          "name": "name",
          "type": "string"
        },
        {
          "internalType": "string",
          "name": "symbol",
          "type": "string"
        }
      ],
      "stateMutability": "nonpayable",
      "type": "constructor"
    },
    {
      "anonymous": false,
      "inputs": [
        {
          "indexed": true,
          "internalType": "address",
          "name": "owner",
          "type": "address"
        },
        {
          "indexed": true,
          "internalType": "address",
          "name": "approved",
          "type": "address"
        },
        {
          "indexed": true,
          "internalType": "uint256",
          "name": "tokenId",
          "type": "uint256"
        }
      ],
      "name": "Approval",
      "type": "event"
    },
    {
      "anonymous": false,
      "inputs": [
        {
          "indexed": true,
          "internalType": "address",
          "name": "owner",
          "type": "address"
        },
        {
          "indexed": true,
          "internalType": "address",
          "name": "operator",
          "type": "address"
        },
        {
          "indexed": false,
          "internalType": "bool",
          "name": "approved",
          "type": "bool"
        }
      ],
      "name": "ApprovalForAll",
      "type": "event"
    },
    {
      "anonymous": false,
      "inputs": [
        {
          "indexed": true,
          "internalType": "address",
          "name": "previousOwner",
          "type": "address"
        },
        {
          "indexed": true,
          "internalType": "address",
          "name": "newOwner",
          "type": "address"
        }
      ],
      "name": "OwnershipTransferred",
      "type": "event"
    },
    {
      "anonymous": false,
      "inputs": [
        {
          "indexed": true,
          "internalType": "address",
          "name": "from",
          "type": "address"
        },
        {
          "indexed": true,
          "internalType": "address",
          "name": "to",
          "type": "address"
        },
        {
          "indexed": true,
          "internalType": "uint256",
          "name": "tokenId",
          "type": "uint256"
        }
      ],
      "name": "Transfer",
      "type": "event"
    },
    {
      "inputs": [
        {
          "internalType": "address",
          "name": "to",
          "type": "address"
        },
        {
          "internalType": "uint256",
          "name": "tokenId",
          "type": "uint256"
        }
      ],
      "name": "approve",
      "outputs": [],
      "stateMutability": "nonpayable",
      "type": "function"
    },
    {
      "inputs": [
        {
          "internalType": "address",
          "name": "owner",
          "type": "address"
        }
      ],
      "name": "balanceOf",
      "outputs": [
        {
          "internalType": "uint256",
          "name": "",
          "type": "uint256"
        }
      ],
      "stateMutability": "view",
      "type": "function",
      "constant": true
    },
    {
      "inputs": [],
      "name": "baseURI",
      "outputs": [
        {
          "internalType": "string",
          "name": "",
          "type": "string"
        }
      ],
      "stateMutability": "view",
      "type": "function",
      "constant": true
    },
    {
      "inputs": [
        {
          "internalType": "uint256",
          "name": "tokenId",
          "type": "uint256"
        }
      ],
      "name": "getApproved",
      "outputs": [
        {
          "internalType": "address",
          "name": "",
          "type": "address"
        }
      ],
      "stateMutability": "view",
      "type": "function",
      "constant": true
    },
    {
      "inputs": [
        {
          "internalType": "address",
          "name": "owner",
          "type": "address"
        },
        {
          "internalType": "address",
          "name": "operator",
          "type": "address"
        }
      ],
      "name": "isApprovedForAll",
      "outputs": [
        {
          "internalType": "bool",
          "name": "",
          "type": "bool"
        }
      ],
      "stateMutability": "view",
      "type": "function",
      "constant": true
    },
    {
      "inputs": [],
      "name": "name",
      "outputs": [
        {
          "internalType": "string",
          "name": "",
          "type": "string"
        }
      ],
      "stateMutability": "view",
      "type": "function",
      "constant": true
    },
    {
      "inputs": [
        {
          "internalType": "address",
          "name": "",
          "type": "address"
        },
        {
          "internalType": "address",
          "name": "",
          "type": "address"
        },
        {
          "internalType": "uint256",
          "name": "",
          "type": "uint256"
        },
        {
          "internalType": "bytes",
          "name": "",
          "type": "bytes"
        }
      ],
      "name": "onERC721Received",
      "outputs": [
        {
          "internalType": "bytes4",
          "name": "",
          "type": "bytes4"
        }
      ],
      "stateMutability": "nonpayable",
      "type": "function"
    },
    {
      "inputs": [],
      "name": "owner",
      "outputs": [
        {
          "internalType": "address",
          "name": "",
          "type": "address"
        }
      ],
      "stateMutability": "view",
      "type": "function",
      "constant": true
    },
    {
      "inputs": [
        {
          "internalType": "uint256",
          "name": "tokenId",
          "type": "uint256"
        }
      ],
      "name": "ownerOf",
      "outputs": [
        {
          "internalType": "address",
          "name": "",
          "type": "address"
        }
      ],
      "stateMutability": "view",
      "type": "function",
      "constant": true
    },
    {
      "inputs": [
        {
          "internalType": "address",
          "name": "from",
          "type": "address"
        },
        {
          "internalType": "address",
          "name": "to",
          "type": "address"
        },
        {
          "internalType": "uint256",
          "name": "tokenId",
          "type": "uint256"
        }
      ],
      "name": "safeTransferFrom",
      "outputs": [],
      "stateMutability": "nonpayable",
      "type": "function"
    },
    {
      "inputs": [
        {
          "internalType": "address",
          "name": "from",
          "type": "address"
        },
        {
          "internalType": "address",
          "name": "to",
          "type": "address"
        },
        {
          "internalType": "uint256",
          "name": "tokenId",
          "type": "uint256"
        },
        {
          "internalType": "bytes",
          "name": "_data",
          "type": "bytes"
        }
      ],
      "name": "safeTransferFrom",
      "outputs": [],
      "stateMutability": "nonpayable",
      "type": "function"
    },
    {
      "inputs": [
        {
          "internalType": "address",
          "name": "operator",
          "type": "address"
        },
        {
          "internalType": "bool",
          "name": "approved",
          "type": "bool"
        }
      ],
      "name": "setApprovalForAll",
      "outputs": [],
      "stateMutability": "nonpayable",
      "type": "function"
    },
    {
      "inputs": [
        {
          "internalType": "bytes4",
          "name": "interfaceId",
          "type": "bytes4"
        }
      ],
      "name": "supportsInterface",
      "outputs": [
        {
          "internalType": "bool",
          "name": "",
          "type": "bool"
        }
      ],
      "stateMutability": "view",
      "type": "function",
      "constant": true
    },
    {
      "inputs": [],
      "name": "symbol",
      "outputs": [
        {
          "internalType": "string",
          "name": "",
          "type": "string"
        }
      ],
      "stateMutability": "view",
      "type": "function",
      "constant": true
    },
    {
      "inputs": [
        {
          "internalType": "uint256",
          "name": "index",
          "type": "uint256"
        }
      ],
      "name": "tokenByIndex",
      "outputs": [
        {
          "internalType": "uint256",
          "name": "",
          "type": "uint256"
        }
      ],
      "stateMutability": "view",
      "type": "function",
      "constant": true
    },
    {
      "inputs": [
        {
          "internalType": "address",
          "name": "owner",
          "type": "address"
        },
        {
          "internalType": "uint256",
          "name": "index",
          "type": "uint256"
        }
      ],
      "name": "tokenOfOwnerByIndex",
      "outputs": [
        {
          "internalType": "uint256",
          "name": "",
          "type": "uint256"
        }
      ],
      "stateMutability": "view",
      "type": "function",
      "constant": true
    },
    {
      "inputs": [
        {
          "internalType": "uint256",
          "name": "",
          "type": "uint256"
        }
      ],
      "name": "tokenPrices",
      "outputs": [
        {
          "internalType": "uint256",
          "name": "",
          "type": "uint256"
        }
      ],
      "stateMutability": "view",
      "type": "function",
      "constant": true
    },
    {
      "inputs": [
        {
          "internalType": "uint256",
          "name": "tokenId",
          "type": "uint256"
        }
      ],
      "name": "tokenURI",
      "outputs": [
        {
          "internalType": "string",
          "name": "",
          "type": "string"
        }
      ],
      "stateMutability": "view",
      "type": "function",
      "constant": true
    },
    {
      "inputs": [],
      "name": "totalSupply",
      "outputs": [
        {
          "internalType": "uint256",
          "name": "",
          "type": "uint256"
        }
      ],
      "stateMutability": "view",
      "type": "function",
      "constant": true
    },
    {
      "inputs": [
        {
          "internalType": "address",
          "name": "from",
          "type": "address"
        },
        {
          "internalType": "address",
          "name": "to",
          "type": "address"
        },
        {
          "internalType": "uint256",
          "name": "tokenId",
          "type": "uint256"
        }
      ],
      "name": "transferFrom",
      "outputs": [],
      "stateMutability": "nonpayable",
      "type": "function"
    },
    {
      "inputs": [
        {
          "internalType": "address",
          "name": "newOwner",
          "type": "address"
        }
      ],
      "name": "transferOwnership",
      "outputs": [],
      "stateMutability": "nonpayable",
      "type": "function"
    },
    {
      "inputs": [],
      "name": "withdraw",
      "outputs": [],
      "stateMutability": "nonpayable",
      "type": "function"
    },
    {
      "inputs": [
        {
          "internalType": "string",
          "name": "baseURI",
          "type": "string"
        }
      ],
      "name": "setBaseURI",
      "outputs": [],
      "stateMutability": "nonpayable",
      "type": "function"
    },
    {
      "inputs": [
        {
          "internalType": "uint256",
          "name": "tokenPrice",
          "type": "uint256"
        },
        {
          "internalType": "uint256",
          "name": "tokenId",
          "type": "uint256"
        }
      ],
      "name": "setTokenPrice",
      "outputs": [],
      "stateMutability": "nonpayable",
      "type": "function"
    },
    {
      "inputs": [
        {
          "internalType": "uint256",
          "name": "tokenPrice",
          "type": "uint256"
        },
        {
          "internalType": "uint256",
          "name": "tokenId",
          "type": "uint256"
        }
      ],
      "name": "updateTokenPrice",
      "outputs": [],
      "stateMutability": "nonpayable",
      "type": "function"
    },
    {
      "inputs": [
        {
          "internalType": "uint256",
          "name": "tokenId",
          "type": "uint256"
        }
      ],
      "name": "getTokenPrice",
      "outputs": [
        {
          "internalType": "uint256",
          "name": "",
          "type": "uint256"
        }
      ],
      "stateMutability": "view",
      "type": "function",
      "constant": true
    },
    {
      "inputs": [
        {
          "internalType": "uint256",
          "name": "tokenId",
          "type": "uint256"
        }
      ],
      "name": "delistToken",
      "outputs": [],
      "stateMutability": "nonpayable",
      "type": "function"
    },
    {
      "inputs": [
        {
          "internalType": "uint256",
          "name": "tokenId",
          "type": "uint256"
        }
      ],
      "name": "buyToken",
      "outputs": [],
      "stateMutability": "payable",
      "type": "function",
      "payable": true
    },
    {
      "inputs": [],
      "name": "getTokensForSale",
      "outputs": [
        {
          "internalType": "uint256[]",
          "name": "",
          "type": "uint256[]"
        }
      ],
      "stateMutability": "view",
      "type": "function",
      "constant": true
    }
  ],
  "bytecode": "0x60806040523480156200001157600080fd5b506040516200469b3803806200469b8339818101604052810190620000379190620004b2565b8181620000516301ffc9a760e01b6200018660201b60201c565b81600690805190602001906200006992919062000265565b5080600790805190602001906200008292919062000265565b506200009b6380ac58cd60e01b6200018660201b60201c565b620000b3635b5e139f60e01b6200018660201b60201c565b620000cb63780e9d6360e01b6200018660201b60201c565b50506000620000df6200025d60201b60201c565b905080600a60006101000a81548173ffffffffffffffffffffffffffffffffffffffff021916908373ffffffffffffffffffffffffffffffffffffffff1602179055508073ffffffffffffffffffffffffffffffffffffffff16600073ffffffffffffffffffffffffffffffffffffffff167f8be0079c531659141344cd1fd0a4f28419497f9722a3daafe3b4186f6b6457e060405160405180910390a35050506200061e565b63ffffffff60e01b817bffffffffffffffffffffffffffffffffffffffffffffffffffffffff191603620001f1576040517f08c379a0000000000000000000000000000000000000000000000000000000008152600401620001e89062000598565b60405180910390fd5b6001600080837bffffffffffffffffffffffffffffffffffffffffffffffffffffffff19167bffffffffffffffffffffffffffffffffffffffffffffffffffffffff1916815260200190815260200160002060006101000a81548160ff02191690831515021790555050565b600033905090565b8280546200027390620005e9565b90600052602060002090601f016020900481019282620002975760008555620002e3565b82601f10620002b257805160ff1916838001178555620002e3565b82800160010185558215620002e3579182015b82811115620002e2578251825591602001919060010190620002c5565b5b509050620002f29190620002f6565b5090565b5b8082111562000311576000816000905550600101620002f7565b5090565b6000604051905090565b600080fd5b600080fd5b600080fd5b600080fd5b6000601f19601f8301169050919050565b7f4e487b7100000000000000000000000000000000000000000000000000000000600052604160045260246000fd5b6200037e8262000333565b810181811067ffffffffffffffff82111715620003a0576200039f62000344565b5b80604052505050565b6000620003b562000315565b9050620003c3828262000373565b919050565b600067ffffffffffffffff821115620003e657620003e562000344565b5b620003f18262000333565b9050602081019050919050565b60005b838110156200041e57808201518184015260208101905062000401565b838111156200042e576000848401525b50505050565b60006200044b6200044584620003c8565b620003a9565b9050828152602081018484840111156200046a57620004696200032e565b5b62000477848285620003fe565b509392505050565b600082601f83011262000497576200049662000329565b5b8151620004a984826020860162000434565b91505092915050565b60008060408385031215620004cc57620004cb6200031f565b5b600083015167ffffffffffffffff811115620004ed57620004ec62000324565b5b620004fb858286016200047f565b925050602083015167ffffffffffffffff8111156200051f576200051e62000324565b5b6200052d858286016200047f565b9150509250929050565b600082825260208201905092915050565b7f4552433136353a20696e76616c696420696e7465726661636520696400000000600082015250565b600062000580601c8362000537565b91506200058d8262000548565b602082019050919050565b60006020820190508181036000830152620005b38162000571565b9050919050565b7f4e487b7100000000000000000000000000000000000000000000000000000000600052602260045260246000fd5b600060028204905060018216806200060257607f821691505b602082108103620006185762000617620005ba565b5b50919050565b61406d806200062e6000396000f3fe6080604052600436106101c25760003560e01c806365e4e1c0116100f7578063b88d4fde11610095578063e5afe3e611610064578063e5afe3e614610669578063e985e9c5146106a6578063eb685c47146106e3578063f2fde38b1461070c576101c2565b8063b88d4fde1461059d578063bed659bc146105c6578063c457fb37146105ef578063c87b56dd1461062c576101c2565b8063897925f5116100d1578063897925f5146104f55780638da5cb5b1461051e57806395d89b4114610549578063a22cb46514610574576101c2565b806365e4e1c0146104625780636c0360eb1461048d57806370a08231146104b8576101c2565b80632d296bf11161016457806342842e0e1161013e57806342842e0e146103965780634f6ccce7146103bf57806355f804b3146103fc5780636352211e14610425576101c2565b80632d296bf1146103265780632f745c59146103425780633ccfd60b1461037f576101c2565b8063095ea7b3116101a0578063095ea7b31461026c578063150b7a021461029557806318160ddd146102d257806323b872dd146102fd576101c2565b806301ffc9a7146101c757806306fdde0314610204578063081812fc1461022f575b600080fd5b3480156101d357600080fd5b506101ee60048036038101906101e99190612971565b610735565b6040516101fb91906129b9565b60405180910390f35b34801561021057600080fd5b5061021961079c565b6040516102269190612a6d565b60405180910390f35b34801561023b57600080fd5b5061025660048036038101906102519190612ac5565b61082e565b6040516102639190612b33565b60405180910390f35b34801561027857600080fd5b50610293600480360381019061028e9190612b7a565b6108b3565b005b3480156102a157600080fd5b506102bc60048036038101906102b79190612c1f565b6109ca565b6040516102c99190612cb6565b60405180910390f35b3480156102de57600080fd5b506102e76109f8565b6040516102f49190612ce0565b60405180910390f35b34801561030957600080fd5b50610324600480360381019061031f9190612cfb565b610a09565b005b610340600480360381019061033b9190612ac5565b610a69565b005b34801561034e57600080fd5b5061036960048036038101906103649190612b7a565b610b41565b6040516103769190612ce0565b60405180910390f35b34801561038b57600080fd5b50610394610b9c565b005b3480156103a257600080fd5b506103bd60048036038101906103b89190612cfb565b610c67565b005b3480156103cb57600080fd5b506103e660048036038101906103e19190612ac5565b610c87565b6040516103f39190612ce0565b60405180910390f35b34801561040857600080fd5b50610423600480360381019061041e9190612e7e565b610caa565b005b34801561043157600080fd5b5061044c60048036038101906104479190612ac5565b610d32565b6040516104599190612b33565b60405180910390f35b34801561046e57600080fd5b50610477610d86565b6040516104849190612f85565b60405180910390f35b34801561049957600080fd5b506104a2610e40565b6040516104af9190612a6d565b60405180910390f35b3480156104c457600080fd5b506104df60048036038101906104da9190612fa7565b610ed2565b6040516104ec9190612ce0565b60405180910390f35b34801561050157600080fd5b5061051c60048036038101906105179190612fd4565b610f90565b005b34801561052a57600080fd5b50610533611028565b6040516105409190612b33565b60405180910390f35b34801561055557600080fd5b5061055e611052565b60405161056b9190612a6d565b60405180910390f35b34801561058057600080fd5b5061059b60048036038101906105969190613040565b6110e4565b005b3480156105a957600080fd5b506105c460048036038101906105bf9190613121565b611264565b005b3480156105d257600080fd5b506105ed60048036038101906105e89190612ac5565b6112c6565b005b3480156105fb57600080fd5b5061061660048036038101906106119190612ac5565b61135a565b6040516106239190612ce0565b60405180910390f35b34801561063857600080fd5b50610653600480360381019061064e9190612ac5565b611377565b6040516106609190612a6d565b60405180910390f35b34801561067557600080fd5b50610690600480360381019061068b9190612ac5565b6114e9565b60405161069d9190612ce0565b60405180910390f35b3480156106b257600080fd5b506106cd60048036038101906106c891906131a4565b611501565b6040516106da91906129b9565b60405180910390f35b3480156106ef57600080fd5b5061070a60048036038101906107059190612fd4565b611595565b005b34801561071857600080fd5b50610733600480360381019061072e9190612fa7565b611642565b005b6000806000837bffffffffffffffffffffffffffffffffffffffffffffffffffffffff19167bffffffffffffffffffffffffffffffffffffffffffffffffffffffff1916815260200190815260200160002060009054906101000a900460ff169050919050565b6060600680546107ab90613213565b80601f01602080910402602001604051908101604052809291908181526020018280546107d790613213565b80156108245780601f106107f957610100808354040283529160200191610824565b820191906000526020600020905b81548152906001019060200180831161080757829003601f168201915b5050505050905090565b6000610839826117ed565b610878576040517f08c379a000000000000000000000000000000000000000000000000000000000815260040161086f90613290565b60405180910390fd5b6004600083815260200190815260200160002060009054906101000a900473ffffffffffffffffffffffffffffffffffffffff169050919050565b60006108be82610d32565b90508073ffffffffffffffffffffffffffffffffffffffff168373ffffffffffffffffffffffffffffffffffffffff160361092e576040517f08c379a000000000000000000000000000000000000000000000000000000000815260040161092590613322565b60405180910390fd5b8073ffffffffffffffffffffffffffffffffffffffff1661094d61180a565b73ffffffffffffffffffffffffffffffffffffffff16148061097c575061097b8161097661180a565b611501565b5b6109bb576040517f08c379a00000000000000000000000000000000000000000000000000000000081526004016109b2906133b4565b60405180910390fd5b6109c58383611812565b505050565b60007f150b7a023d4804d13e8c85fb27262cb750cf6ba9f9dd3bb30d90f482ceeb4b1f905095945050505050565b6000610a0460026118cb565b905090565b610a1a610a1461180a565b826118e0565b610a59576040517f08c379a0000000000000000000000000000000000000000000000000000000008152600401610a5090613446565b60405180910390fd5b610a648383836119be565b505050565b6000600b600083815260200190815260200160002054905034811115610ac4576040517f08c379a0000000000000000000000000000000000000000000000000000000008152600401610abb906134b2565b60405180910390fd5b610ad882600c611bd490919063ffffffff16565b610b17576040517f08c379a0000000000000000000000000000000000000000000000000000000008152600401610b0e9061351e565b60405180910390fd5b610b2b82600c611bee90919063ffffffff16565b50610b3d610b3761180a565b83611c08565b5050565b6000610b9482600160008673ffffffffffffffffffffffffffffffffffffffff1673ffffffffffffffffffffffffffffffffffffffff168152602001908152602001600020611c2690919063ffffffff16565b905092915050565b610ba461180a565b73ffffffffffffffffffffffffffffffffffffffff16610bc2611028565b73ffffffffffffffffffffffffffffffffffffffff1614610c18576040517f08c379a0000000000000000000000000000000000000000000000000000000008152600401610c0f9061358a565b60405180910390fd5b60004790503373ffffffffffffffffffffffffffffffffffffffff166108fc829081150290604051600060405180830381858888f19350505050158015610c63573d6000803e3d6000fd5b5050565b610c8283838360405180602001604052806000815250611264565b505050565b600080610c9e836002611c4090919063ffffffff16565b50905080915050919050565b610cb261180a565b73ffffffffffffffffffffffffffffffffffffffff16610cd0611028565b73ffffffffffffffffffffffffffffffffffffffff1614610d26576040517f08c379a0000000000000000000000000000000000000000000000000000000008152600401610d1d9061358a565b60405180910390fd5b610d2f81611c6c565b50565b6000610d7f826040518060400160405280601881526020017f4552433732313a20696e76616c696420746f6b656e20494400000000000000008152506002611c869092919063ffffffff16565b9050919050565b60606000610d94600c611ca5565b67ffffffffffffffff811115610dad57610dac612d53565b5b604051908082528060200260200182016040528015610ddb5781602001602082028036833780820191505090505b50905060005b610deb600c611ca5565b811015610e3857610e0681600c611c2690919063ffffffff16565b828281518110610e1957610e186135aa565b5b6020026020010181815250508080610e3090613608565b915050610de1565b508091505090565b606060098054610e4f90613213565b80601f0160208091040260200160405190810160405280929190818152602001828054610e7b90613213565b8015610ec85780601f10610e9d57610100808354040283529160200191610ec8565b820191906000526020600020905b815481529060010190602001808311610eab57829003601f168201915b5050505050905090565b60008073ffffffffffffffffffffffffffffffffffffffff168273ffffffffffffffffffffffffffffffffffffffff1603610f42576040517f08c379a0000000000000000000000000000000000000000000000000000000008152600401610f39906136c2565b60405180910390fd5b610f89600160008473ffffffffffffffffffffffffffffffffffffffff1673ffffffffffffffffffffffffffffffffffffffff168152602001908152602001600020611ca5565b9050919050565b610f9861180a565b73ffffffffffffffffffffffffffffffffffffffff16610fb6611028565b73ffffffffffffffffffffffffffffffffffffffff161461100c576040517f08c379a00000000000000000000000000000000000000000000000000000000081526004016110039061358a565b60405180910390fd5b81600b6000838152602001908152602001600020819055505050565b6000600a60009054906101000a900473ffffffffffffffffffffffffffffffffffffffff16905090565b60606007805461106190613213565b80601f016020809104026020016040519081016040528092919081815260200182805461108d90613213565b80156110da5780601f106110af576101008083540402835291602001916110da565b820191906000526020600020905b8154815290600101906020018083116110bd57829003601f168201915b5050505050905090565b6110ec61180a565b73ffffffffffffffffffffffffffffffffffffffff168273ffffffffffffffffffffffffffffffffffffffff1603611159576040517f08c379a00000000000000000000000000000000000000000000000000000000081526004016111509061372e565b60405180910390fd5b806005600061116661180a565b73ffffffffffffffffffffffffffffffffffffffff1673ffffffffffffffffffffffffffffffffffffffff16815260200190815260200160002060008473ffffffffffffffffffffffffffffffffffffffff1673ffffffffffffffffffffffffffffffffffffffff16815260200190815260200160002060006101000a81548160ff0219169083151502179055508173ffffffffffffffffffffffffffffffffffffffff1661121361180a565b73ffffffffffffffffffffffffffffffffffffffff167f17307eab39ab6107e8899845ad3d59bd9653f200f220920489ca2b5937696c318360405161125891906129b9565b60405180910390a35050565b61127561126f61180a565b836118e0565b6112b4576040517f08c379a00000000000000000000000000000000000000000000000000000000081526004016112ab90613446565b60405180910390fd5b6112c084848484611cba565b50505050565b6112ce61180a565b73ffffffffffffffffffffffffffffffffffffffff166112ec611028565b73ffffffffffffffffffffffffffffffffffffffff1614611342576040517f08c379a00000000000000000000000000000000000000000000000000000000081526004016113399061358a565b60405180910390fd5b61135681600c611bee90919063ffffffff16565b5050565b6000600b6000838152602001908152602001600020549050919050565b6060611382826117ed565b6113c1576040517f08c379a00000000000000000000000000000000000000000000000000000000081526004016113b89061379a565b60405180910390fd5b60006008600084815260200190815260200160002080546113e190613213565b80601f016020809104026020016040519081016040528092919081815260200182805461140d90613213565b801561145a5780601f1061142f5761010080835404028352916020019161145a565b820191906000526020600020905b81548152906001019060200180831161143d57829003601f168201915b50505050509050600061146b610e40565b905060008151036114805781925050506114e4565b6000825111156114b557808260405160200161149d9291906137f6565b604051602081830303815290604052925050506114e4565b806114bf85611d16565b6040516020016114d09291906137f6565b604051602081830303815290604052925050505b919050565b600b6020528060005260406000206000915090505481565b6000600560008473ffffffffffffffffffffffffffffffffffffffff1673ffffffffffffffffffffffffffffffffffffffff16815260200190815260200160002060008373ffffffffffffffffffffffffffffffffffffffff1673ffffffffffffffffffffffffffffffffffffffff16815260200190815260200160002060009054906101000a900460ff16905092915050565b61159d61180a565b73ffffffffffffffffffffffffffffffffffffffff166115bb611028565b73ffffffffffffffffffffffffffffffffffffffff1614611611576040517f08c379a00000000000000000000000000000000000000000000000000000000081526004016116089061358a565b60405180910390fd5b81600b60008381526020019081526020016000208190555061163d81600c611e8890919063ffffffff16565b505050565b61164a61180a565b73ffffffffffffffffffffffffffffffffffffffff16611668611028565b73ffffffffffffffffffffffffffffffffffffffff16146116be576040517f08c379a00000000000000000000000000000000000000000000000000000000081526004016116b59061358a565b60405180910390fd5b600073ffffffffffffffffffffffffffffffffffffffff168173ffffffffffffffffffffffffffffffffffffffff160361172d576040517f08c379a00000000000000000000000000000000000000000000000000000000081526004016117249061388c565b60405180910390fd5b8073ffffffffffffffffffffffffffffffffffffffff16600a60009054906101000a900473ffffffffffffffffffffffffffffffffffffffff1673ffffffffffffffffffffffffffffffffffffffff167f8be0079c531659141344cd1fd0a4f28419497f9722a3daafe3b4186f6b6457e060405160405180910390a380600a60006101000a81548173ffffffffffffffffffffffffffffffffffffffff021916908373ffffffffffffffffffffffffffffffffffffffff16021790555050565b6000611803826002611ea290919063ffffffff16565b9050919050565b600033905090565b816004600083815260200190815260200160002060006101000a81548173ffffffffffffffffffffffffffffffffffffffff021916908373ffffffffffffffffffffffffffffffffffffffff160217905550808273ffffffffffffffffffffffffffffffffffffffff1661188583610d32565b73ffffffffffffffffffffffffffffffffffffffff167f8c5be1e5ebec7d5bd14f71427d1e84f3dd0314c0f7b2291e5b200ac8c7c3b92560405160405180910390a45050565b60006118d982600001611ebc565b9050919050565b60006118eb826117ed565b61192a576040517f08c379a000000000000000000000000000000000000000000000000000000000815260040161192190613290565b60405180910390fd5b600061193583610d32565b90508073ffffffffffffffffffffffffffffffffffffffff168473ffffffffffffffffffffffffffffffffffffffff1614806119a457508373ffffffffffffffffffffffffffffffffffffffff1661198c8461082e565b73ffffffffffffffffffffffffffffffffffffffff16145b806119b557506119b48185611501565b5b91505092915050565b8273ffffffffffffffffffffffffffffffffffffffff166119de82610d32565b73ffffffffffffffffffffffffffffffffffffffff1614611a34576040517f08c379a0000000000000000000000000000000000000000000000000000000008152600401611a2b9061391e565b60405180910390fd5b600073ffffffffffffffffffffffffffffffffffffffff168273ffffffffffffffffffffffffffffffffffffffff1603611aa3576040517f08c379a0000000000000000000000000000000000000000000000000000000008152600401611a9a906139b0565b60405180910390fd5b611aae838383611ecd565b611ab9600082611812565b611b0a81600160008673ffffffffffffffffffffffffffffffffffffffff1673ffffffffffffffffffffffffffffffffffffffff168152602001908152602001600020611bee90919063ffffffff16565b50611b5c81600160008573ffffffffffffffffffffffffffffffffffffffff1673ffffffffffffffffffffffffffffffffffffffff168152602001908152602001600020611e8890919063ffffffff16565b50611b7381836002611ed29092919063ffffffff16565b50808273ffffffffffffffffffffffffffffffffffffffff168473ffffffffffffffffffffffffffffffffffffffff167fddf252ad1be2c89b69c2b068fc378daa952ba7f163c4a11628f55a4df523b3ef60405160405180910390a4505050565b6000611be6836000018360001b611f07565b905092915050565b6000611c00836000018360001b611f2a565b905092915050565b611c22828260405180602001604052806000815250612042565b5050565b6000611c35836000018361209d565b60001c905092915050565b600080600080611c538660000186612111565b915091508160001c8160001c9350935050509250929050565b8060099080519060200190611c82929190612862565b5050565b6000611c99846000018460001b8461219b565b60001c90509392505050565b6000611cb38260000161223c565b9050919050565b611cc68484848461224d565b611d05576040517f08c379a0000000000000000000000000000000000000000000000000000000008152600401611cfc90613a42565b60405180910390fd5b611d108484846119be565b50505050565b606060008203611d5d576040518060400160405280600181526020017f30000000000000000000000000000000000000000000000000000000000000008152509050611e83565b600082905060005b60008214611d8f578080611d7890613608565b915050600a82611d889190613a91565b9150611d65565b60008167ffffffffffffffff811115611dab57611daa612d53565b5b6040519080825280601f01601f191660200182016040528015611ddd5781602001600182028036833780820191505090505b5090506000600183611def9190613ac2565b90508593505b60008414611e7b57600a84611e0a9190613af6565b6030611e169190613b27565b60f81b828280611e2590613b7d565b935081518110611e3857611e376135aa565b5b60200101907effffffffffffffffffffffffffffffffffffffffffffffffffffffffffffff1916908160001a905350600a84611e749190613a91565b9350611df5565b819450505050505b919050565b6000611e9a836000018360001b6123b1565b905092915050565b6000611eb4836000018360001b612421565b905092915050565b600081600001805490509050919050565b505050565b6000611efe846000018460001b8473ffffffffffffffffffffffffffffffffffffffff1660001b612444565b90509392505050565b600080836001016000848152602001908152602001600020541415905092915050565b60008083600101600084815260200190815260200160002054905060008114612036576000600182611f5c9190613ac2565b9050600060018660000180549050611f749190613ac2565b90506000866000018281548110611f8e57611f8d6135aa565b5b9060005260206000200154905080876000018481548110611fb257611fb16135aa565b5b9060005260206000200181905550600183611fcd9190613b27565b8760010160008381526020019081526020016000208190555086600001805480611ffa57611ff9613ba6565b5b6001900381819060005260206000200160009055905586600101600087815260200190815260200160002060009055600194505050505061203c565b60009150505b92915050565b61204c838361252f565b612059600084848461224d565b612098576040517f08c379a000000000000000000000000000000000000000000000000000000000815260040161208f90613a42565b60405180910390fd5b505050565b6000818360000180549050116120e8576040517f08c379a00000000000000000000000000000000000000000000000000000000081526004016120df90613c47565b60405180910390fd5b8260000182815481106120fe576120fd6135aa565b5b9060005260206000200154905092915050565b6000808284600001805490501161215d576040517f08c379a000000000000000000000000000000000000000000000000000000000815260040161215490613cd9565b60405180910390fd5b6000846000018481548110612175576121746135aa565b5b906000526020600020906002020190508060000154816001015492509250509250929050565b600080846001016000858152602001908152602001600020549050600081141583906121fd576040517f08c379a00000000000000000000000000000000000000000000000000000000081526004016121f49190612a6d565b60405180910390fd5b508460000160018261220f9190613ac2565b815481106122205761221f6135aa565b5b9060005260206000209060020201600101549150509392505050565b600081600001805490509050919050565b600061226e8473ffffffffffffffffffffffffffffffffffffffff166126bc565b61227b57600190506123a9565b600061234263150b7a0260e01b61229061180a565b8887876040516024016122a69493929190613d4e565b604051602081830303815290604052907bffffffffffffffffffffffffffffffffffffffffffffffffffffffff19166020820180517bffffffffffffffffffffffffffffffffffffffffffffffffffffffff8381831617835250505050604051806060016040528060328152602001614006603291398773ffffffffffffffffffffffffffffffffffffffff166126cf9092919063ffffffff16565b905060008180602001905181019061235a9190613daf565b905063150b7a0260e01b7bffffffffffffffffffffffffffffffffffffffffffffffffffffffff1916817bffffffffffffffffffffffffffffffffffffffffffffffffffffffff191614925050505b949350505050565b60006123bd8383611f07565b61241657826000018290806001815401808255809150506001900390600052602060002001600090919091909150558260000180549050836001016000848152602001908152602001600020819055506001905061241b565b600090505b92915050565b600080836001016000848152602001908152602001600020541415905092915050565b600080846001016000858152602001908152602001600020549050600081036124ea57846000016040518060400160405280868152602001858152509080600181540180825580915050600190039060005260206000209060020201600090919091909150600082015181600001556020820151816001015550508460000180549050856001016000868152602001908152602001600020819055506001915050612528565b82856000016001836124fc9190613ac2565b8154811061250d5761250c6135aa565b5b90600052602060002090600202016001018190555060009150505b9392505050565b600073ffffffffffffffffffffffffffffffffffffffff168273ffffffffffffffffffffffffffffffffffffffff160361259e576040517f08c379a000000000000000000000000000000000000000000000000000000000815260040161259590613e28565b60405180910390fd5b6125a7816117ed565b156125e7576040517f08c379a00000000000000000000000000000000000000000000000000000000081526004016125de90613e94565b60405180910390fd5b6125f360008383611ecd565b61264481600160008573ffffffffffffffffffffffffffffffffffffffff1673ffffffffffffffffffffffffffffffffffffffff168152602001908152602001600020611e8890919063ffffffff16565b5061265b81836002611ed29092919063ffffffff16565b50808273ffffffffffffffffffffffffffffffffffffffff16600073ffffffffffffffffffffffffffffffffffffffff167fddf252ad1be2c89b69c2b068fc378daa952ba7f163c4a11628f55a4df523b3ef60405160405180910390a45050565b600080823b905060008111915050919050565b60606126de84846000856126e7565b90509392505050565b60608247101561272c576040517f08c379a000000000000000000000000000000000000000000000000000000000815260040161272390613f26565b60405180910390fd5b612735856126bc565b612774576040517f08c379a000000000000000000000000000000000000000000000000000000000815260040161276b90613f92565b60405180910390fd5b6000808673ffffffffffffffffffffffffffffffffffffffff16858760405161279d9190613fee565b60006040518083038185875af1925050503d80600081146127da576040519150601f19603f3d011682016040523d82523d6000602084013e6127df565b606091505b50915091506127ef8282866127fb565b92505050949350505050565b6060831561280b5782905061285b565b60008351111561281e5782518084602001fd5b816040517f08c379a00000000000000000000000000000000000000000000000000000000081526004016128529190612a6d565b60405180910390fd5b9392505050565b82805461286e90613213565b90600052602060002090601f01602090048101928261289057600085556128d7565b82601f106128a957805160ff19168380011785556128d7565b828001600101855582156128d7579182015b828111156128d65782518255916020019190600101906128bb565b5b5090506128e491906128e8565b5090565b5b808211156129015760008160009055506001016128e9565b5090565b6000604051905090565b600080fd5b600080fd5b60007fffffffff0000000000000000000000000000000000000000000000000000000082169050919050565b61294e81612919565b811461295957600080fd5b50565b60008135905061296b81612945565b92915050565b6000602082840312156129875761298661290f565b5b60006129958482850161295c565b91505092915050565b60008115159050919050565b6129b38161299e565b82525050565b60006020820190506129ce60008301846129aa565b92915050565b600081519050919050565b600082825260208201905092915050565b60005b83811015612a0e5780820151818401526020810190506129f3565b83811115612a1d576000848401525b50505050565b6000601f19601f8301169050919050565b6000612a3f826129d4565b612a4981856129df565b9350612a598185602086016129f0565b612a6281612a23565b840191505092915050565b60006020820190508181036000830152612a878184612a34565b905092915050565b6000819050919050565b612aa281612a8f565b8114612aad57600080fd5b50565b600081359050612abf81612a99565b92915050565b600060208284031215612adb57612ada61290f565b5b6000612ae984828501612ab0565b91505092915050565b600073ffffffffffffffffffffffffffffffffffffffff82169050919050565b6000612b1d82612af2565b9050919050565b612b2d81612b12565b82525050565b6000602082019050612b486000830184612b24565b92915050565b612b5781612b12565b8114612b6257600080fd5b50565b600081359050612b7481612b4e565b92915050565b60008060408385031215612b9157612b9061290f565b5b6000612b9f85828601612b65565b9250506020612bb085828601612ab0565b9150509250929050565b600080fd5b600080fd5b600080fd5b60008083601f840112612bdf57612bde612bba565b5b8235905067ffffffffffffffff811115612bfc57612bfb612bbf565b5b602083019150836001820283011115612c1857612c17612bc4565b5b9250929050565b600080600080600060808688031215612c3b57612c3a61290f565b5b6000612c4988828901612b65565b9550506020612c5a88828901612b65565b9450506040612c6b88828901612ab0565b935050606086013567ffffffffffffffff811115612c8c57612c8b612914565b5b612c9888828901612bc9565b92509250509295509295909350565b612cb081612919565b82525050565b6000602082019050612ccb6000830184612ca7565b92915050565b612cda81612a8f565b82525050565b6000602082019050612cf56000830184612cd1565b92915050565b600080600060608486031215612d1457612d1361290f565b5b6000612d2286828701612b65565b9350506020612d3386828701612b65565b9250506040612d4486828701612ab0565b9150509250925092565b600080fd5b7f4e487b7100000000000000000000000000000000000000000000000000000000600052604160045260246000fd5b612d8b82612a23565b810181811067ffffffffffffffff82111715612daa57612da9612d53565b5b80604052505050565b6000612dbd612905565b9050612dc98282612d82565b919050565b600067ffffffffffffffff821115612de957612de8612d53565b5b612df282612a23565b9050602081019050919050565b82818337600083830152505050565b6000612e21612e1c84612dce565b612db3565b905082815260208101848484011115612e3d57612e3c612d4e565b5b612e48848285612dff565b509392505050565b600082601f830112612e6557612e64612bba565b5b8135612e75848260208601612e0e565b91505092915050565b600060208284031215612e9457612e9361290f565b5b600082013567ffffffffffffffff811115612eb257612eb1612914565b5b612ebe84828501612e50565b91505092915050565b600081519050919050565b600082825260208201905092915050565b6000819050602082019050919050565b612efc81612a8f565b82525050565b6000612f0e8383612ef3565b60208301905092915050565b6000602082019050919050565b6000612f3282612ec7565b612f3c8185612ed2565b9350612f4783612ee3565b8060005b83811015612f78578151612f5f8882612f02565b9750612f6a83612f1a565b925050600181019050612f4b565b5085935050505092915050565b60006020820190508181036000830152612f9f8184612f27565b905092915050565b600060208284031215612fbd57612fbc61290f565b5b6000612fcb84828501612b65565b91505092915050565b60008060408385031215612feb57612fea61290f565b5b6000612ff985828601612ab0565b925050602061300a85828601612ab0565b9150509250929050565b61301d8161299e565b811461302857600080fd5b50565b60008135905061303a81613014565b92915050565b600080604083850312156130575761305661290f565b5b600061306585828601612b65565b92505060206130768582860161302b565b9150509250929050565b600067ffffffffffffffff82111561309b5761309a612d53565b5b6130a482612a23565b9050602081019050919050565b60006130c46130bf84613080565b612db3565b9050828152602081018484840111156130e0576130df612d4e565b5b6130eb848285612dff565b509392505050565b600082601f83011261310857613107612bba565b5b81356131188482602086016130b1565b91505092915050565b6000806000806080858703121561313b5761313a61290f565b5b600061314987828801612b65565b945050602061315a87828801612b65565b935050604061316b87828801612ab0565b925050606085013567ffffffffffffffff81111561318c5761318b612914565b5b613198878288016130f3565b91505092959194509250565b600080604083850312156131bb576131ba61290f565b5b60006131c985828601612b65565b92505060206131da85828601612b65565b9150509250929050565b7f4e487b7100000000000000000000000000000000000000000000000000000000600052602260045260246000fd5b6000600282049050600182168061322b57607f821691505b60208210810361323e5761323d6131e4565b5b50919050565b7f4552433732313a20696e76616c696420746f6b656e2049440000000000000000600082015250565b600061327a6018836129df565b915061328582613244565b602082019050919050565b600060208201905081810360008301526132a98161326d565b9050919050565b7f4552433732313a20617070726f76616c20746f2063757272656e74206f776e6560008201527f7200000000000000000000000000000000000000000000000000000000000000602082015250565b600061330c6021836129df565b9150613317826132b0565b604082019050919050565b6000602082019050818103600083015261333b816132ff565b9050919050565b7f4552433732313a20617070726f76652063616c6c6572206973206e6f7420746f60008201527f6b656e206f776e6572206e6f7220617070726f76656400000000000000000000602082015250565b600061339e6036836129df565b91506133a982613342565b604082019050919050565b600060208201905081810360008301526133cd81613391565b9050919050565b7f4552433732313a2063616c6c6572206973206e6f7420746f6b656e206f776e6560008201527f72206e6f7220617070726f766564000000000000000000000000000000000000602082015250565b6000613430602e836129df565b915061343b826133d4565b604082019050919050565b6000602082019050818103600083015261345f81613423565b9050919050565b7f45746865722076616c75652073656e74206973206e6f7420636f727265637400600082015250565b600061349c601f836129df565b91506134a782613466565b602082019050919050565b600060208201905081810360008301526134cb8161348f565b9050919050565b7f546f6b656e206973206e6f7420666f722073616c650000000000000000000000600082015250565b60006135086015836129df565b9150613513826134d2565b602082019050919050565b60006020820190508181036000830152613537816134fb565b9050919050565b7f4f776e61626c653a2063616c6c6572206973206e6f7420746865206f776e6572600082015250565b60006135746020836129df565b915061357f8261353e565b602082019050919050565b600060208201905081810360008301526135a381613567565b9050919050565b7f4e487b7100000000000000000000000000000000000000000000000000000000600052603260045260246000fd5b7f4e487b7100000000000000000000000000000000000000000000000000000000600052601160045260246000fd5b600061361382612a8f565b91507fffffffffffffffffffffffffffffffffffffffffffffffffffffffffffffffff8203613645576136446135d9565b5b600182019050919050565b7f4552433732313a2061646472657373207a65726f206973206e6f74206120766160008201527f6c6964206f776e65720000000000000000000000000000000000000000000000602082015250565b60006136ac6029836129df565b91506136b782613650565b604082019050919050565b600060208201905081810360008301526136db8161369f565b9050919050565b7f4552433732313a20617070726f766520746f2063616c6c657200000000000000600082015250565b60006137186019836129df565b9150613723826136e2565b602082019050919050565b600060208201905081810360008301526137478161370b565b9050919050565b7f4552433732314d657461646174613a20696e76616c696420746f6b656e204944600082015250565b60006137846020836129df565b915061378f8261374e565b602082019050919050565b600060208201905081810360008301526137b381613777565b9050919050565b600081905092915050565b60006137d0826129d4565b6137da81856137ba565b93506137ea8185602086016129f0565b80840191505092915050565b600061380282856137c5565b915061380e82846137c5565b91508190509392505050565b7f4f776e61626c653a206e6577206f776e657220697320746865207a65726f206160008201527f6464726573730000000000000000000000000000000000000000000000000000602082015250565b60006138766026836129df565b91506138818261381a565b604082019050919050565b600060208201905081810360008301526138a581613869565b9050919050565b7f4552433732313a207472616e736665722066726f6d20696e636f72726563742060008201527f6f776e6572000000000000000000000000000000000000000000000000000000602082015250565b60006139086025836129df565b9150613913826138ac565b604082019050919050565b60006020820190508181036000830152613937816138fb565b9050919050565b7f4552433732313a207472616e7366657220746f20746865207a65726f2061646460008201527f7265737300000000000000000000000000000000000000000000000000000000602082015250565b600061399a6024836129df565b91506139a58261393e565b604082019050919050565b600060208201905081810360008301526139c98161398d565b9050919050565b7f4552433732313a207472616e7366657220746f206e6f6e20455243373231526560008201527f63656976657220696d706c656d656e7465720000000000000000000000000000602082015250565b6000613a2c6032836129df565b9150613a37826139d0565b604082019050919050565b60006020820190508181036000830152613a5b81613a1f565b9050919050565b7f4e487b7100000000000000000000000000000000000000000000000000000000600052601260045260246000fd5b6000613a9c82612a8f565b9150613aa783612a8f565b925082613ab757613ab6613a62565b5b828204905092915050565b6000613acd82612a8f565b9150613ad883612a8f565b925082821015613aeb57613aea6135d9565b5b828203905092915050565b6000613b0182612a8f565b9150613b0c83612a8f565b925082613b1c57613b1b613a62565b5b828206905092915050565b6000613b3282612a8f565b9150613b3d83612a8f565b9250827fffffffffffffffffffffffffffffffffffffffffffffffffffffffffffffffff03821115613b7257613b716135d9565b5b828201905092915050565b6000613b8882612a8f565b915060008203613b9b57613b9a6135d9565b5b600182039050919050565b7f4e487b7100000000000000000000000000000000000000000000000000000000600052603160045260246000fd5b7f456e756d657261626c655365743a20696e646578206f7574206f6620626f756e60008201527f6473000000000000000000000000000000000000000000000000000000000000602082015250565b6000613c316022836129df565b9150613c3c82613bd5565b604082019050919050565b60006020820190508181036000830152613c6081613c24565b9050919050565b7f456e756d657261626c654d61703a20696e646578206f7574206f6620626f756e60008201527f6473000000000000000000000000000000000000000000000000000000000000602082015250565b6000613cc36022836129df565b9150613cce82613c67565b604082019050919050565b60006020820190508181036000830152613cf281613cb6565b9050919050565b600081519050919050565b600082825260208201905092915050565b6000613d2082613cf9565b613d2a8185613d04565b9350613d3a8185602086016129f0565b613d4381612a23565b840191505092915050565b6000608082019050613d636000830187612b24565b613d706020830186612b24565b613d7d6040830185612cd1565b8181036060830152613d8f8184613d15565b905095945050505050565b600081519050613da981612945565b92915050565b600060208284031215613dc557613dc461290f565b5b6000613dd384828501613d9a565b91505092915050565b7f4552433732313a206d696e7420746f20746865207a65726f2061646472657373600082015250565b6000613e126020836129df565b9150613e1d82613ddc565b602082019050919050565b60006020820190508181036000830152613e4181613e05565b9050919050565b7f4552433732313a20746f6b656e20616c7265616479206d696e74656400000000600082015250565b6000613e7e601c836129df565b9150613e8982613e48565b602082019050919050565b60006020820190508181036000830152613ead81613e71565b9050919050565b7f416464726573733a20696e73756666696369656e742062616c616e636520666f60008201527f722063616c6c0000000000000000000000000000000000000000000000000000602082015250565b6000613f106026836129df565b9150613f1b82613eb4565b604082019050919050565b60006020820190508181036000830152613f3f81613f03565b9050919050565b7f416464726573733a2063616c6c20746f206e6f6e2d636f6e7472616374000000600082015250565b6000613f7c601d836129df565b9150613f8782613f46565b602082019050919050565b60006020820190508181036000830152613fab81613f6f565b9050919050565b600081905092915050565b6000613fc882613cf9565b613fd28185613fb2565b9350613fe28185602086016129f0565b80840191505092915050565b6000613ffa8284613fbd565b91508190509291505056fe4552433732313a207472616e7366657220746f206e6f6e20455243373231526563656976657220696d706c656d656e746572a2646970667358221220a3dc6a8d12f393a575e7a90d7ef0e2a0bd6e4c7e6d642e679ca95f7ccf82080b64736f6c634300080d0033",
  "immutableReferences": {},
  "source": "// SPDX-License-Identifier: UNLICENSED\npragma solidity ^0.8.0;\npragma abicoder v2;\n\nimport \"./Ownable.sol\";\nimport \"./ERC721.sol\";\n\nimport \"./utils/SafeMath.sol\";\nimport \"./utils/Address.sol\";\nimport \"./utils/EnumerableSet.sol\";\nimport \"./utils/EnumerableMap.sol\";\nimport \"./utils/Strings.sol\";\n\n/**\n * @title LushVault contract\n * @dev Extends ERC721 Non-Fungible Token Standard basic implementation\n */\ncontract LushVault is ERC721, Ownable {\n    using SafeMath for uint256;\n    using Address for address;\n    using EnumerableSet for EnumerableSet.UintSet;\n    using EnumerableMap for EnumerableMap.UintToAddressMap;\n    using Strings for uint256;\n\n    mapping (uint256 => uint256) public tokenPrices;\n\n    EnumerableSet.UintSet private tokensForSale;\n\n    constructor(string memory name, string memory symbol) ERC721(name, symbol) {\n\n    }\n\n\n/* Consider adding additional function to allow withdrawal to an address other than the contract owner */\n    function withdraw() public onlyOwner {\n        uint balance = address(this).balance;\n        payable(msg.sender).transfer(balance);\n    }\n\n    function setBaseURI(string memory baseURI) public onlyOwner {\n        _setBaseURI(baseURI);\n    }\n\n    function setTokenPrice (uint256 tokenPrice, uint256 tokenId) public onlyOwner {\n        tokenPrices[tokenId] = tokenPrice;\n        tokensForSale.add(tokenId);\n    }\n\n    function updateTokenPrice (uint256 tokenPrice, uint256 tokenId) public onlyOwner {\n        tokenPrices[tokenId] = tokenPrice;\n    }\n\n    function getTokenPrice (uint256 tokenId) public view returns(uint256) {\n        return tokenPrices[tokenId];\n    }\n\n    function delistToken (uint256 tokenId) public onlyOwner {\n        tokensForSale.remove(tokenId);\n    }\n\n    function buyToken (uint256 tokenId) public payable {\n        uint256 tokenPrice = tokenPrices[tokenId];\n        require(tokenPrice <= msg.value, \"Ether value sent is not correct\");\n        require(tokensForSale.contains(tokenId), \"Token is not for sale\");\n        tokensForSale.remove(tokenId);\n        _safeMint(_msgSender(), tokenId);\n    }\n\n    function getTokensForSale () public view returns (uint256[] memory) {\n        uint256[] memory tokenReturn = new uint256[](tokensForSale.length());\n        for (uint i = 0; i < tokensForSale.length(); i++) {\n            tokenReturn[i] = tokensForSale.at(i);\n        }\n        return tokenReturn;\n    }\n\n}",
  "sourcePath": "/Users/lucas/Documents/LushVault-Contracts/contracts/LushVault.sol",
  "compiler": {
    "name": "solc",
    "version": "0.8.13+commit.abaa5c0e.Emscripten.clang"
  },
  "schemaVersion": "3.4.7",
  "updatedAt": "2022-06-19T20:21:13.016Z",
  "networkType": "ethereum",
  "devdoc": {
    "details": "Extends ERC721 Non-Fungible Token Standard basic implementation",
    "kind": "dev",
    "methods": {
      "approve(address,uint256)": {
        "details": "See {IERC721-approve}."
      },
      "balanceOf(address)": {
        "details": "See {IERC721-balanceOf}."
      },
      "baseURI()": {
        "details": "Returns the base URI set via {_setBaseURI}. This will be automatically added as a prefix in {tokenURI} to each token's URI, or to the token ID if no specific URI is set for that token ID."
      },
      "getApproved(uint256)": {
        "details": "See {IERC721-getApproved}."
      },
      "isApprovedForAll(address,address)": {
        "details": "See {IERC721-isApprovedForAll}."
      },
      "name()": {
        "details": "See {IERC721Metadata-name}."
      },
      "owner()": {
        "details": "Returns the address of the current owner."
      },
      "ownerOf(uint256)": {
        "details": "See {IERC721-ownerOf}."
      },
      "safeTransferFrom(address,address,uint256)": {
        "details": "See {IERC721-safeTransferFrom}."
      },
      "safeTransferFrom(address,address,uint256,bytes)": {
        "details": "See {IERC721-safeTransferFrom}."
      },
      "setApprovalForAll(address,bool)": {
        "details": "See {IERC721-setApprovalForAll}."
      },
      "supportsInterface(bytes4)": {
        "details": "See {IERC165-supportsInterface}. Time complexity O(1), guaranteed to always use less than 30 000 gas."
      },
      "symbol()": {
        "details": "See {IERC721Metadata-symbol}."
      },
      "tokenByIndex(uint256)": {
        "details": "See {IERC721Enumerable-tokenByIndex}."
      },
      "tokenOfOwnerByIndex(address,uint256)": {
        "details": "See {IERC721Enumerable-tokenOfOwnerByIndex}."
      },
      "tokenURI(uint256)": {
        "details": "See {IERC721Metadata-tokenURI}."
      },
      "totalSupply()": {
        "details": "See {IERC721Enumerable-totalSupply}."
      },
      "transferFrom(address,address,uint256)": {
        "details": "See {IERC721-transferFrom}."
      },
      "transferOwnership(address)": {
        "details": "Transfers ownership of the contract to a new account (`newOwner`). Can only be called by the current owner."
      }
    },
    "title": "LushVault contract",
    "version": 1
  },
  "userdoc": {
    "kind": "user",
    "methods": {},
    "version": 1
  }
}