{
  "contractName": "LushVault",
  "abi": [
    {
      "inputs": [
        {
          "internalType": "string",
          "name": "name",
          "type": "string"
        },
        {
          "internalType": "string",
          "name": "symbol",
          "type": "string"
        }
      ],
      "stateMutability": "nonpayable",
      "type": "constructor"
    },
    {
      "anonymous": false,
      "inputs": [
        {
          "indexed": true,
          "internalType": "address",
          "name": "owner",
          "type": "address"
        },
        {
          "indexed": true,
          "internalType": "address",
          "name": "approved",
          "type": "address"
        },
        {
          "indexed": true,
          "internalType": "uint256",
          "name": "tokenId",
          "type": "uint256"
        }
      ],
      "name": "Approval",
      "type": "event"
    },
    {
      "anonymous": false,
      "inputs": [
        {
          "indexed": true,
          "internalType": "address",
          "name": "owner",
          "type": "address"
        },
        {
          "indexed": true,
          "internalType": "address",
          "name": "operator",
          "type": "address"
        },
        {
          "indexed": false,
          "internalType": "bool",
          "name": "approved",
          "type": "bool"
        }
      ],
      "name": "ApprovalForAll",
      "type": "event"
    },
    {
      "anonymous": false,
      "inputs": [
        {
          "indexed": true,
          "internalType": "address",
          "name": "previousOwner",
          "type": "address"
        },
        {
          "indexed": true,
          "internalType": "address",
          "name": "newOwner",
          "type": "address"
        }
      ],
      "name": "OwnershipTransferred",
      "type": "event"
    },
    {
      "anonymous": false,
      "inputs": [
        {
          "indexed": true,
          "internalType": "address",
          "name": "from",
          "type": "address"
        },
        {
          "indexed": true,
          "internalType": "address",
          "name": "to",
          "type": "address"
        },
        {
          "indexed": true,
          "internalType": "uint256",
          "name": "tokenId",
          "type": "uint256"
        }
      ],
      "name": "Transfer",
      "type": "event"
    },
    {
      "inputs": [
        {
          "internalType": "address",
          "name": "to",
          "type": "address"
        },
        {
          "internalType": "uint256",
          "name": "tokenId",
          "type": "uint256"
        }
      ],
      "name": "approve",
      "outputs": [],
      "stateMutability": "nonpayable",
      "type": "function"
    },
    {
      "inputs": [
        {
          "internalType": "address",
          "name": "owner",
          "type": "address"
        }
      ],
      "name": "balanceOf",
      "outputs": [
        {
          "internalType": "uint256",
          "name": "",
          "type": "uint256"
        }
      ],
      "stateMutability": "view",
      "type": "function",
      "constant": true
    },
    {
      "inputs": [],
      "name": "baseURI",
      "outputs": [
        {
          "internalType": "string",
          "name": "",
          "type": "string"
        }
      ],
      "stateMutability": "view",
      "type": "function",
      "constant": true
    },
    {
      "inputs": [
        {
          "internalType": "uint256",
          "name": "tokenId",
          "type": "uint256"
        }
      ],
      "name": "getApproved",
      "outputs": [
        {
          "internalType": "address",
          "name": "",
          "type": "address"
        }
      ],
      "stateMutability": "view",
      "type": "function",
      "constant": true
    },
    {
      "inputs": [
        {
          "internalType": "address",
          "name": "checkAddress",
          "type": "address"
        }
      ],
      "name": "getTokensForAddress",
      "outputs": [
        {
          "internalType": "uint256[]",
          "name": "",
          "type": "uint256[]"
        }
      ],
      "stateMutability": "view",
      "type": "function",
      "constant": true
    },
    {
      "inputs": [
        {
          "internalType": "address",
          "name": "owner",
          "type": "address"
        },
        {
          "internalType": "address",
          "name": "operator",
          "type": "address"
        }
      ],
      "name": "isApprovedForAll",
      "outputs": [
        {
          "internalType": "bool",
          "name": "",
          "type": "bool"
        }
      ],
      "stateMutability": "view",
      "type": "function",
      "constant": true
    },
    {
      "inputs": [],
      "name": "name",
      "outputs": [
        {
          "internalType": "string",
          "name": "",
          "type": "string"
        }
      ],
      "stateMutability": "view",
      "type": "function",
      "constant": true
    },
    {
      "inputs": [
        {
          "internalType": "address",
          "name": "",
          "type": "address"
        },
        {
          "internalType": "address",
          "name": "",
          "type": "address"
        },
        {
          "internalType": "uint256",
          "name": "",
          "type": "uint256"
        },
        {
          "internalType": "bytes",
          "name": "",
          "type": "bytes"
        }
      ],
      "name": "onERC721Received",
      "outputs": [
        {
          "internalType": "bytes4",
          "name": "",
          "type": "bytes4"
        }
      ],
      "stateMutability": "nonpayable",
      "type": "function"
    },
    {
      "inputs": [],
      "name": "owner",
      "outputs": [
        {
          "internalType": "address",
          "name": "",
          "type": "address"
        }
      ],
      "stateMutability": "view",
      "type": "function",
      "constant": true
    },
    {
      "inputs": [
        {
          "internalType": "uint256",
          "name": "tokenId",
          "type": "uint256"
        }
      ],
      "name": "ownerOf",
      "outputs": [
        {
          "internalType": "address",
          "name": "",
          "type": "address"
        }
      ],
      "stateMutability": "view",
      "type": "function",
      "constant": true
    },
    {
      "inputs": [
        {
          "internalType": "address",
          "name": "from",
          "type": "address"
        },
        {
          "internalType": "address",
          "name": "to",
          "type": "address"
        },
        {
          "internalType": "uint256",
          "name": "tokenId",
          "type": "uint256"
        }
      ],
      "name": "safeTransferFrom",
      "outputs": [],
      "stateMutability": "nonpayable",
      "type": "function"
    },
    {
      "inputs": [
        {
          "internalType": "address",
          "name": "from",
          "type": "address"
        },
        {
          "internalType": "address",
          "name": "to",
          "type": "address"
        },
        {
          "internalType": "uint256",
          "name": "tokenId",
          "type": "uint256"
        },
        {
          "internalType": "bytes",
          "name": "_data",
          "type": "bytes"
        }
      ],
      "name": "safeTransferFrom",
      "outputs": [],
      "stateMutability": "nonpayable",
      "type": "function"
    },
    {
      "inputs": [
        {
          "internalType": "address",
          "name": "operator",
          "type": "address"
        },
        {
          "internalType": "bool",
          "name": "approved",
          "type": "bool"
        }
      ],
      "name": "setApprovalForAll",
      "outputs": [],
      "stateMutability": "nonpayable",
      "type": "function"
    },
    {
      "inputs": [
        {
          "internalType": "bytes4",
          "name": "interfaceId",
          "type": "bytes4"
        }
      ],
      "name": "supportsInterface",
      "outputs": [
        {
          "internalType": "bool",
          "name": "",
          "type": "bool"
        }
      ],
      "stateMutability": "view",
      "type": "function",
      "constant": true
    },
    {
      "inputs": [],
      "name": "symbol",
      "outputs": [
        {
          "internalType": "string",
          "name": "",
          "type": "string"
        }
      ],
      "stateMutability": "view",
      "type": "function",
      "constant": true
    },
    {
      "inputs": [
        {
          "internalType": "uint256",
          "name": "index",
          "type": "uint256"
        }
      ],
      "name": "tokenByIndex",
      "outputs": [
        {
          "internalType": "uint256",
          "name": "",
          "type": "uint256"
        }
      ],
      "stateMutability": "view",
      "type": "function",
      "constant": true
    },
    {
      "inputs": [
        {
          "internalType": "address",
          "name": "owner",
          "type": "address"
        },
        {
          "internalType": "uint256",
          "name": "index",
          "type": "uint256"
        }
      ],
      "name": "tokenOfOwnerByIndex",
      "outputs": [
        {
          "internalType": "uint256",
          "name": "",
          "type": "uint256"
        }
      ],
      "stateMutability": "view",
      "type": "function",
      "constant": true
    },
    {
      "inputs": [
        {
          "internalType": "uint256",
          "name": "",
          "type": "uint256"
        }
      ],
      "name": "tokenPrices",
      "outputs": [
        {
          "internalType": "uint256",
          "name": "",
          "type": "uint256"
        }
      ],
      "stateMutability": "view",
      "type": "function",
      "constant": true
    },
    {
      "inputs": [
        {
          "internalType": "uint256",
          "name": "tokenId",
          "type": "uint256"
        }
      ],
      "name": "tokenURI",
      "outputs": [
        {
          "internalType": "string",
          "name": "",
          "type": "string"
        }
      ],
      "stateMutability": "view",
      "type": "function",
      "constant": true
    },
    {
      "inputs": [],
      "name": "totalSupply",
      "outputs": [
        {
          "internalType": "uint256",
          "name": "",
          "type": "uint256"
        }
      ],
      "stateMutability": "view",
      "type": "function",
      "constant": true
    },
    {
      "inputs": [
        {
          "internalType": "address",
          "name": "from",
          "type": "address"
        },
        {
          "internalType": "address",
          "name": "to",
          "type": "address"
        },
        {
          "internalType": "uint256",
          "name": "tokenId",
          "type": "uint256"
        }
      ],
      "name": "transferFrom",
      "outputs": [],
      "stateMutability": "nonpayable",
      "type": "function"
    },
    {
      "inputs": [
        {
          "internalType": "address",
          "name": "newOwner",
          "type": "address"
        }
      ],
      "name": "transferOwnership",
      "outputs": [],
      "stateMutability": "nonpayable",
      "type": "function"
    },
    {
      "inputs": [],
      "name": "withdraw",
      "outputs": [],
      "stateMutability": "nonpayable",
      "type": "function"
    },
    {
      "inputs": [
        {
          "internalType": "string",
          "name": "baseURI",
          "type": "string"
        }
      ],
      "name": "setBaseURI",
      "outputs": [],
      "stateMutability": "nonpayable",
      "type": "function"
    },
    {
      "inputs": [
        {
          "internalType": "uint256",
          "name": "tokenPrice",
          "type": "uint256"
        },
        {
          "internalType": "uint256",
          "name": "tokenId",
          "type": "uint256"
        }
      ],
      "name": "setTokenPrice",
      "outputs": [],
      "stateMutability": "nonpayable",
      "type": "function"
    },
    {
      "inputs": [
        {
          "internalType": "uint256",
          "name": "tokenPrice",
          "type": "uint256"
        },
        {
          "internalType": "uint256",
          "name": "tokenId",
          "type": "uint256"
        }
      ],
      "name": "updateTokenPrice",
      "outputs": [],
      "stateMutability": "nonpayable",
      "type": "function"
    },
    {
      "inputs": [
        {
          "internalType": "uint256",
          "name": "tokenId",
          "type": "uint256"
        }
      ],
      "name": "getTokenPrice",
      "outputs": [
        {
          "internalType": "uint256",
          "name": "",
          "type": "uint256"
        }
      ],
      "stateMutability": "view",
      "type": "function",
      "constant": true
    },
    {
      "inputs": [
        {
          "internalType": "uint256",
          "name": "tokenId",
          "type": "uint256"
        }
      ],
      "name": "delistToken",
      "outputs": [],
      "stateMutability": "nonpayable",
      "type": "function"
    },
    {
      "inputs": [
        {
          "internalType": "uint256",
          "name": "tokenId",
          "type": "uint256"
        }
      ],
      "name": "buyToken",
      "outputs": [],
      "stateMutability": "payable",
      "type": "function",
      "payable": true
    },
    {
      "inputs": [],
      "name": "getTokensForSale",
      "outputs": [
        {
          "internalType": "uint256[]",
          "name": "",
          "type": "uint256[]"
        }
      ],
      "stateMutability": "view",
      "type": "function",
      "constant": true
    },
    {
      "inputs": [
        {
          "internalType": "uint256",
          "name": "tokenId",
          "type": "uint256"
        }
      ],
      "name": "isTokenForSale",
      "outputs": [
        {
          "internalType": "bool",
          "name": "",
          "type": "bool"
        }
      ],
      "stateMutability": "view",
      "type": "function",
      "constant": true
    }
  ],
  "bytecode": "0x60806040523480156200001157600080fd5b50604051620048bb380380620048bb8339818101604052810190620000379190620004b2565b8181620000516301ffc9a760e01b6200018660201b60201c565b81600690805190602001906200006992919062000265565b5080600790805190602001906200008292919062000265565b506200009b6380ac58cd60e01b6200018660201b60201c565b620000b3635b5e139f60e01b6200018660201b60201c565b620000cb63780e9d6360e01b6200018660201b60201c565b50506000620000df6200025d60201b60201c565b905080600a60006101000a81548173ffffffffffffffffffffffffffffffffffffffff021916908373ffffffffffffffffffffffffffffffffffffffff1602179055508073ffffffffffffffffffffffffffffffffffffffff16600073ffffffffffffffffffffffffffffffffffffffff167f8be0079c531659141344cd1fd0a4f28419497f9722a3daafe3b4186f6b6457e060405160405180910390a35050506200061e565b63ffffffff60e01b817bffffffffffffffffffffffffffffffffffffffffffffffffffffffff191603620001f1576040517f08c379a0000000000000000000000000000000000000000000000000000000008152600401620001e89062000598565b60405180910390fd5b6001600080837bffffffffffffffffffffffffffffffffffffffffffffffffffffffff19167bffffffffffffffffffffffffffffffffffffffffffffffffffffffff1916815260200190815260200160002060006101000a81548160ff02191690831515021790555050565b600033905090565b8280546200027390620005e9565b90600052602060002090601f016020900481019282620002975760008555620002e3565b82601f10620002b257805160ff1916838001178555620002e3565b82800160010185558215620002e3579182015b82811115620002e2578251825591602001919060010190620002c5565b5b509050620002f29190620002f6565b5090565b5b8082111562000311576000816000905550600101620002f7565b5090565b6000604051905090565b600080fd5b600080fd5b600080fd5b600080fd5b6000601f19601f8301169050919050565b7f4e487b7100000000000000000000000000000000000000000000000000000000600052604160045260246000fd5b6200037e8262000333565b810181811067ffffffffffffffff82111715620003a0576200039f62000344565b5b80604052505050565b6000620003b562000315565b9050620003c3828262000373565b919050565b600067ffffffffffffffff821115620003e657620003e562000344565b5b620003f18262000333565b9050602081019050919050565b60005b838110156200041e57808201518184015260208101905062000401565b838111156200042e576000848401525b50505050565b60006200044b6200044584620003c8565b620003a9565b9050828152602081018484840111156200046a57620004696200032e565b5b62000477848285620003fe565b509392505050565b600082601f83011262000497576200049662000329565b5b8151620004a984826020860162000434565b91505092915050565b60008060408385031215620004cc57620004cb6200031f565b5b600083015167ffffffffffffffff811115620004ed57620004ec62000324565b5b620004fb858286016200047f565b925050602083015167ffffffffffffffff8111156200051f576200051e62000324565b5b6200052d858286016200047f565b9150509250929050565b600082825260208201905092915050565b7f4552433136353a20696e76616c696420696e7465726661636520696400000000600082015250565b600062000580601c8362000537565b91506200058d8262000548565b602082019050919050565b60006020820190508181036000830152620005b38162000571565b9050919050565b7f4e487b7100000000000000000000000000000000000000000000000000000000600052602260045260246000fd5b600060028204905060018216806200060257607f821691505b602082108103620006185762000617620005ba565b5b50919050565b61428d806200062e6000396000f3fe6080604052600436106101d85760003560e01c80636352211e11610102578063b88d4fde11610095578063e5afe3e611610064578063e5afe3e6146106f9578063e985e9c514610736578063eb685c4714610773578063f2fde38b1461079c576101d8565b8063b88d4fde1461062d578063bed659bc14610656578063c457fb371461067f578063c87b56dd146106bc576101d8565b8063897925f5116100d1578063897925f5146105855780638da5cb5b146105ae57806395d89b41146105d9578063a22cb46514610604576101d8565b80636352211e146104b557806365e4e1c0146104f25780636c0360eb1461051d57806370a0823114610548576101d8565b806323b872dd1161017a57806342842e0e1161014957806342842e0e146103e95780634f6ccce7146104125780634fed1c941461044f57806355f804b31461048c576101d8565b806323b872dd146103505780632d296bf1146103795780632f745c59146103955780633ccfd60b146103d2576101d8565b8063095ea7b3116101b6578063095ea7b3146102825780630f60e3ce146102ab578063150b7a02146102e857806318160ddd14610325576101d8565b806301ffc9a7146101dd57806306fdde031461021a578063081812fc14610245575b600080fd5b3480156101e957600080fd5b5061020460048036038101906101ff9190612b91565b6107c5565b6040516102119190612bd9565b60405180910390f35b34801561022657600080fd5b5061022f61082c565b60405161023c9190612c8d565b60405180910390f35b34801561025157600080fd5b5061026c60048036038101906102679190612ce5565b6108be565b6040516102799190612d53565b60405180910390f35b34801561028e57600080fd5b506102a960048036038101906102a49190612d9a565b610943565b005b3480156102b757600080fd5b506102d260048036038101906102cd9190612dda565b610a5a565b6040516102df9190612ec5565b60405180910390f35b3480156102f457600080fd5b5061030f600480360381019061030a9190612f4c565b610bcd565b60405161031c9190612fe3565b60405180910390f35b34801561033157600080fd5b5061033a610bfb565b604051610347919061300d565b60405180910390f35b34801561035c57600080fd5b5061037760048036038101906103729190613028565b610c0c565b005b610393600480360381019061038e9190612ce5565b610c6c565b005b3480156103a157600080fd5b506103bc60048036038101906103b79190612d9a565b610d44565b6040516103c9919061300d565b60405180910390f35b3480156103de57600080fd5b506103e7610d9f565b005b3480156103f557600080fd5b50610410600480360381019061040b9190613028565b610e6a565b005b34801561041e57600080fd5b5061043960048036038101906104349190612ce5565b610e8a565b604051610446919061300d565b60405180910390f35b34801561045b57600080fd5b5061047660048036038101906104719190612ce5565b610ead565b6040516104839190612bd9565b60405180910390f35b34801561049857600080fd5b506104b360048036038101906104ae91906131ab565b610eca565b005b3480156104c157600080fd5b506104dc60048036038101906104d79190612ce5565b610f52565b6040516104e99190612d53565b60405180910390f35b3480156104fe57600080fd5b50610507610fa6565b6040516105149190612ec5565b60405180910390f35b34801561052957600080fd5b50610532611060565b60405161053f9190612c8d565b60405180910390f35b34801561055457600080fd5b5061056f600480360381019061056a9190612dda565b6110f2565b60405161057c919061300d565b60405180910390f35b34801561059157600080fd5b506105ac60048036038101906105a791906131f4565b6111b0565b005b3480156105ba57600080fd5b506105c3611248565b6040516105d09190612d53565b60405180910390f35b3480156105e557600080fd5b506105ee611272565b6040516105fb9190612c8d565b60405180910390f35b34801561061057600080fd5b5061062b60048036038101906106269190613260565b611304565b005b34801561063957600080fd5b50610654600480360381019061064f9190613341565b611484565b005b34801561066257600080fd5b5061067d60048036038101906106789190612ce5565b6114e6565b005b34801561068b57600080fd5b506106a660048036038101906106a19190612ce5565b61157a565b6040516106b3919061300d565b60405180910390f35b3480156106c857600080fd5b506106e360048036038101906106de9190612ce5565b611597565b6040516106f09190612c8d565b60405180910390f35b34801561070557600080fd5b50610720600480360381019061071b9190612ce5565b611709565b60405161072d919061300d565b60405180910390f35b34801561074257600080fd5b5061075d600480360381019061075891906133c4565b611721565b60405161076a9190612bd9565b60405180910390f35b34801561077f57600080fd5b5061079a600480360381019061079591906131f4565b6117b5565b005b3480156107a857600080fd5b506107c360048036038101906107be9190612dda565b611862565b005b6000806000837bffffffffffffffffffffffffffffffffffffffffffffffffffffffff19167bffffffffffffffffffffffffffffffffffffffffffffffffffffffff1916815260200190815260200160002060009054906101000a900460ff169050919050565b60606006805461083b90613433565b80601f016020809104026020016040519081016040528092919081815260200182805461086790613433565b80156108b45780601f10610889576101008083540402835291602001916108b4565b820191906000526020600020905b81548152906001019060200180831161089757829003601f168201915b5050505050905090565b60006108c982611a0d565b610908576040517f08c379a00000000000000000000000000000000000000000000000000000000081526004016108ff906134b0565b60405180910390fd5b6004600083815260200190815260200160002060009054906101000a900473ffffffffffffffffffffffffffffffffffffffff169050919050565b600061094e82610f52565b90508073ffffffffffffffffffffffffffffffffffffffff168373ffffffffffffffffffffffffffffffffffffffff16036109be576040517f08c379a00000000000000000000000000000000000000000000000000000000081526004016109b590613542565b60405180910390fd5b8073ffffffffffffffffffffffffffffffffffffffff166109dd611a2a565b73ffffffffffffffffffffffffffffffffffffffff161480610a0c5750610a0b81610a06611a2a565b611721565b5b610a4b576040517f08c379a0000000000000000000000000000000000000000000000000000000008152600401610a42906135d4565b60405180910390fd5b610a558383611a32565b505050565b60606000610aa5600160008573ffffffffffffffffffffffffffffffffffffffff1673ffffffffffffffffffffffffffffffffffffffff168152602001908152602001600020611aeb565b67ffffffffffffffff811115610abe57610abd613080565b5b604051908082528060200260200182016040528015610aec5781602001602082028036833780820191505090505b50905060005b610b39600160008673ffffffffffffffffffffffffffffffffffffffff1673ffffffffffffffffffffffffffffffffffffffff168152602001908152602001600020611aeb565b811015610bc357610b9181600160008773ffffffffffffffffffffffffffffffffffffffff1673ffffffffffffffffffffffffffffffffffffffff168152602001908152602001600020611b0090919063ffffffff16565b828281518110610ba457610ba36135f4565b5b6020026020010181815250508080610bbb90613652565b915050610af2565b5080915050919050565b60007f150b7a023d4804d13e8c85fb27262cb750cf6ba9f9dd3bb30d90f482ceeb4b1f905095945050505050565b6000610c076002611b1a565b905090565b610c1d610c17611a2a565b82611b2f565b610c5c576040517f08c379a0000000000000000000000000000000000000000000000000000000008152600401610c539061370c565b60405180910390fd5b610c67838383611c0d565b505050565b6000600b600083815260200190815260200160002054905034811115610cc7576040517f08c379a0000000000000000000000000000000000000000000000000000000008152600401610cbe90613778565b60405180910390fd5b610cdb82600c611e2390919063ffffffff16565b610d1a576040517f08c379a0000000000000000000000000000000000000000000000000000000008152600401610d11906137e4565b60405180910390fd5b610d2e82600c611e3d90919063ffffffff16565b50610d40610d3a611a2a565b83611e57565b5050565b6000610d9782600160008673ffffffffffffffffffffffffffffffffffffffff1673ffffffffffffffffffffffffffffffffffffffff168152602001908152602001600020611b0090919063ffffffff16565b905092915050565b610da7611a2a565b73ffffffffffffffffffffffffffffffffffffffff16610dc5611248565b73ffffffffffffffffffffffffffffffffffffffff1614610e1b576040517f08c379a0000000000000000000000000000000000000000000000000000000008152600401610e1290613850565b60405180910390fd5b60004790503373ffffffffffffffffffffffffffffffffffffffff166108fc829081150290604051600060405180830381858888f19350505050158015610e66573d6000803e3d6000fd5b5050565b610e8583838360405180602001604052806000815250611484565b505050565b600080610ea1836002611e7590919063ffffffff16565b50905080915050919050565b6000610ec382600c611e2390919063ffffffff16565b9050919050565b610ed2611a2a565b73ffffffffffffffffffffffffffffffffffffffff16610ef0611248565b73ffffffffffffffffffffffffffffffffffffffff1614610f46576040517f08c379a0000000000000000000000000000000000000000000000000000000008152600401610f3d90613850565b60405180910390fd5b610f4f81611ea1565b50565b6000610f9f826040518060400160405280601881526020017f4552433732313a20696e76616c696420746f6b656e20494400000000000000008152506002611ebb9092919063ffffffff16565b9050919050565b60606000610fb4600c611aeb565b67ffffffffffffffff811115610fcd57610fcc613080565b5b604051908082528060200260200182016040528015610ffb5781602001602082028036833780820191505090505b50905060005b61100b600c611aeb565b8110156110585761102681600c611b0090919063ffffffff16565b828281518110611039576110386135f4565b5b602002602001018181525050808061105090613652565b915050611001565b508091505090565b60606009805461106f90613433565b80601f016020809104026020016040519081016040528092919081815260200182805461109b90613433565b80156110e85780601f106110bd576101008083540402835291602001916110e8565b820191906000526020600020905b8154815290600101906020018083116110cb57829003601f168201915b5050505050905090565b60008073ffffffffffffffffffffffffffffffffffffffff168273ffffffffffffffffffffffffffffffffffffffff1603611162576040517f08c379a0000000000000000000000000000000000000000000000000000000008152600401611159906138e2565b60405180910390fd5b6111a9600160008473ffffffffffffffffffffffffffffffffffffffff1673ffffffffffffffffffffffffffffffffffffffff168152602001908152602001600020611aeb565b9050919050565b6111b8611a2a565b73ffffffffffffffffffffffffffffffffffffffff166111d6611248565b73ffffffffffffffffffffffffffffffffffffffff161461122c576040517f08c379a000000000000000000000000000000000000000000000000000000000815260040161122390613850565b60405180910390fd5b81600b6000838152602001908152602001600020819055505050565b6000600a60009054906101000a900473ffffffffffffffffffffffffffffffffffffffff16905090565b60606007805461128190613433565b80601f01602080910402602001604051908101604052809291908181526020018280546112ad90613433565b80156112fa5780601f106112cf576101008083540402835291602001916112fa565b820191906000526020600020905b8154815290600101906020018083116112dd57829003601f168201915b5050505050905090565b61130c611a2a565b73ffffffffffffffffffffffffffffffffffffffff168273ffffffffffffffffffffffffffffffffffffffff1603611379576040517f08c379a00000000000000000000000000000000000000000000000000000000081526004016113709061394e565b60405180910390fd5b8060056000611386611a2a565b73ffffffffffffffffffffffffffffffffffffffff1673ffffffffffffffffffffffffffffffffffffffff16815260200190815260200160002060008473ffffffffffffffffffffffffffffffffffffffff1673ffffffffffffffffffffffffffffffffffffffff16815260200190815260200160002060006101000a81548160ff0219169083151502179055508173ffffffffffffffffffffffffffffffffffffffff16611433611a2a565b73ffffffffffffffffffffffffffffffffffffffff167f17307eab39ab6107e8899845ad3d59bd9653f200f220920489ca2b5937696c31836040516114789190612bd9565b60405180910390a35050565b61149561148f611a2a565b83611b2f565b6114d4576040517f08c379a00000000000000000000000000000000000000000000000000000000081526004016114cb9061370c565b60405180910390fd5b6114e084848484611eda565b50505050565b6114ee611a2a565b73ffffffffffffffffffffffffffffffffffffffff1661150c611248565b73ffffffffffffffffffffffffffffffffffffffff1614611562576040517f08c379a000000000000000000000000000000000000000000000000000000000815260040161155990613850565b60405180910390fd5b61157681600c611e3d90919063ffffffff16565b5050565b6000600b6000838152602001908152602001600020549050919050565b60606115a282611a0d565b6115e1576040517f08c379a00000000000000000000000000000000000000000000000000000000081526004016115d8906139ba565b60405180910390fd5b600060086000848152602001908152602001600020805461160190613433565b80601f016020809104026020016040519081016040528092919081815260200182805461162d90613433565b801561167a5780601f1061164f5761010080835404028352916020019161167a565b820191906000526020600020905b81548152906001019060200180831161165d57829003601f168201915b50505050509050600061168b611060565b905060008151036116a0578192505050611704565b6000825111156116d55780826040516020016116bd929190613a16565b60405160208183030381529060405292505050611704565b806116df85611f36565b6040516020016116f0929190613a16565b604051602081830303815290604052925050505b919050565b600b6020528060005260406000206000915090505481565b6000600560008473ffffffffffffffffffffffffffffffffffffffff1673ffffffffffffffffffffffffffffffffffffffff16815260200190815260200160002060008373ffffffffffffffffffffffffffffffffffffffff1673ffffffffffffffffffffffffffffffffffffffff16815260200190815260200160002060009054906101000a900460ff16905092915050565b6117bd611a2a565b73ffffffffffffffffffffffffffffffffffffffff166117db611248565b73ffffffffffffffffffffffffffffffffffffffff1614611831576040517f08c379a000000000000000000000000000000000000000000000000000000000815260040161182890613850565b60405180910390fd5b81600b60008381526020019081526020016000208190555061185d81600c6120a890919063ffffffff16565b505050565b61186a611a2a565b73ffffffffffffffffffffffffffffffffffffffff16611888611248565b73ffffffffffffffffffffffffffffffffffffffff16146118de576040517f08c379a00000000000000000000000000000000000000000000000000000000081526004016118d590613850565b60405180910390fd5b600073ffffffffffffffffffffffffffffffffffffffff168173ffffffffffffffffffffffffffffffffffffffff160361194d576040517f08c379a000000000000000000000000000000000000000000000000000000000815260040161194490613aac565b60405180910390fd5b8073ffffffffffffffffffffffffffffffffffffffff16600a60009054906101000a900473ffffffffffffffffffffffffffffffffffffffff1673ffffffffffffffffffffffffffffffffffffffff167f8be0079c531659141344cd1fd0a4f28419497f9722a3daafe3b4186f6b6457e060405160405180910390a380600a60006101000a81548173ffffffffffffffffffffffffffffffffffffffff021916908373ffffffffffffffffffffffffffffffffffffffff16021790555050565b6000611a238260026120c290919063ffffffff16565b9050919050565b600033905090565b816004600083815260200190815260200160002060006101000a81548173ffffffffffffffffffffffffffffffffffffffff021916908373ffffffffffffffffffffffffffffffffffffffff160217905550808273ffffffffffffffffffffffffffffffffffffffff16611aa583610f52565b73ffffffffffffffffffffffffffffffffffffffff167f8c5be1e5ebec7d5bd14f71427d1e84f3dd0314c0f7b2291e5b200ac8c7c3b92560405160405180910390a45050565b6000611af9826000016120dc565b9050919050565b6000611b0f83600001836120ed565b60001c905092915050565b6000611b2882600001612161565b9050919050565b6000611b3a82611a0d565b611b79576040517f08c379a0000000000000000000000000000000000000000000000000000000008152600401611b70906134b0565b60405180910390fd5b6000611b8483610f52565b90508073ffffffffffffffffffffffffffffffffffffffff168473ffffffffffffffffffffffffffffffffffffffff161480611bf357508373ffffffffffffffffffffffffffffffffffffffff16611bdb846108be565b73ffffffffffffffffffffffffffffffffffffffff16145b80611c045750611c038185611721565b5b91505092915050565b8273ffffffffffffffffffffffffffffffffffffffff16611c2d82610f52565b73ffffffffffffffffffffffffffffffffffffffff1614611c83576040517f08c379a0000000000000000000000000000000000000000000000000000000008152600401611c7a90613b3e565b60405180910390fd5b600073ffffffffffffffffffffffffffffffffffffffff168273ffffffffffffffffffffffffffffffffffffffff1603611cf2576040517f08c379a0000000000000000000000000000000000000000000000000000000008152600401611ce990613bd0565b60405180910390fd5b611cfd838383612172565b611d08600082611a32565b611d5981600160008673ffffffffffffffffffffffffffffffffffffffff1673ffffffffffffffffffffffffffffffffffffffff168152602001908152602001600020611e3d90919063ffffffff16565b50611dab81600160008573ffffffffffffffffffffffffffffffffffffffff1673ffffffffffffffffffffffffffffffffffffffff1681526020019081526020016000206120a890919063ffffffff16565b50611dc2818360026121779092919063ffffffff16565b50808273ffffffffffffffffffffffffffffffffffffffff168473ffffffffffffffffffffffffffffffffffffffff167fddf252ad1be2c89b69c2b068fc378daa952ba7f163c4a11628f55a4df523b3ef60405160405180910390a4505050565b6000611e35836000018360001b6121ac565b905092915050565b6000611e4f836000018360001b6121cf565b905092915050565b611e718282604051806020016040528060008152506122e7565b5050565b600080600080611e888660000186612342565b915091508160001c8160001c9350935050509250929050565b8060099080519060200190611eb7929190612a82565b5050565b6000611ece846000018460001b846123cc565b60001c90509392505050565b611ee68484848461246d565b611f25576040517f08c379a0000000000000000000000000000000000000000000000000000000008152600401611f1c90613c62565b60405180910390fd5b611f30848484611c0d565b50505050565b606060008203611f7d576040518060400160405280600181526020017f300000000000000000000000000000000000000000000000000000000000000081525090506120a3565b600082905060005b60008214611faf578080611f9890613652565b915050600a82611fa89190613cb1565b9150611f85565b60008167ffffffffffffffff811115611fcb57611fca613080565b5b6040519080825280601f01601f191660200182016040528015611ffd5781602001600182028036833780820191505090505b509050600060018361200f9190613ce2565b90508593505b6000841461209b57600a8461202a9190613d16565b60306120369190613d47565b60f81b82828061204590613d9d565b935081518110612058576120576135f4565b5b60200101907effffffffffffffffffffffffffffffffffffffffffffffffffffffffffffff1916908160001a905350600a846120949190613cb1565b9350612015565b819450505050505b919050565b60006120ba836000018360001b6125d1565b905092915050565b60006120d4836000018360001b612641565b905092915050565b600081600001805490509050919050565b600081836000018054905011612138576040517f08c379a000000000000000000000000000000000000000000000000000000000815260040161212f90613e38565b60405180910390fd5b82600001828154811061214e5761214d6135f4565b5b9060005260206000200154905092915050565b600081600001805490509050919050565b505050565b60006121a3846000018460001b8473ffffffffffffffffffffffffffffffffffffffff1660001b612664565b90509392505050565b600080836001016000848152602001908152602001600020541415905092915050565b600080836001016000848152602001908152602001600020549050600081146122db5760006001826122019190613ce2565b90506000600186600001805490506122199190613ce2565b90506000866000018281548110612233576122326135f4565b5b9060005260206000200154905080876000018481548110612257576122566135f4565b5b90600052602060002001819055506001836122729190613d47565b876001016000838152602001908152602001600020819055508660000180548061229f5761229e613e58565b5b600190038181906000526020600020016000905590558660010160008781526020019081526020016000206000905560019450505050506122e1565b60009150505b92915050565b6122f1838361274f565b6122fe600084848461246d565b61233d576040517f08c379a000000000000000000000000000000000000000000000000000000000815260040161233490613c62565b60405180910390fd5b505050565b6000808284600001805490501161238e576040517f08c379a000000000000000000000000000000000000000000000000000000000815260040161238590613ef9565b60405180910390fd5b60008460000184815481106123a6576123a56135f4565b5b906000526020600020906002020190508060000154816001015492509250509250929050565b6000808460010160008581526020019081526020016000205490506000811415839061242e576040517f08c379a00000000000000000000000000000000000000000000000000000000081526004016124259190612c8d565b60405180910390fd5b50846000016001826124409190613ce2565b81548110612451576124506135f4565b5b9060005260206000209060020201600101549150509392505050565b600061248e8473ffffffffffffffffffffffffffffffffffffffff166128dc565b61249b57600190506125c9565b600061256263150b7a0260e01b6124b0611a2a565b8887876040516024016124c69493929190613f6e565b604051602081830303815290604052907bffffffffffffffffffffffffffffffffffffffffffffffffffffffff19166020820180517bffffffffffffffffffffffffffffffffffffffffffffffffffffffff8381831617835250505050604051806060016040528060328152602001614226603291398773ffffffffffffffffffffffffffffffffffffffff166128ef9092919063ffffffff16565b905060008180602001905181019061257a9190613fcf565b905063150b7a0260e01b7bffffffffffffffffffffffffffffffffffffffffffffffffffffffff1916817bffffffffffffffffffffffffffffffffffffffffffffffffffffffff191614925050505b949350505050565b60006125dd83836121ac565b61263657826000018290806001815401808255809150506001900390600052602060002001600090919091909150558260000180549050836001016000848152602001908152602001600020819055506001905061263b565b600090505b92915050565b600080836001016000848152602001908152602001600020541415905092915050565b6000808460010160008581526020019081526020016000205490506000810361270a57846000016040518060400160405280868152602001858152509080600181540180825580915050600190039060005260206000209060020201600090919091909150600082015181600001556020820151816001015550508460000180549050856001016000868152602001908152602001600020819055506001915050612748565b828560000160018361271c9190613ce2565b8154811061272d5761272c6135f4565b5b90600052602060002090600202016001018190555060009150505b9392505050565b600073ffffffffffffffffffffffffffffffffffffffff168273ffffffffffffffffffffffffffffffffffffffff16036127be576040517f08c379a00000000000000000000000000000000000000000000000000000000081526004016127b590614048565b60405180910390fd5b6127c781611a0d565b15612807576040517f08c379a00000000000000000000000000000000000000000000000000000000081526004016127fe906140b4565b60405180910390fd5b61281360008383612172565b61286481600160008573ffffffffffffffffffffffffffffffffffffffff1673ffffffffffffffffffffffffffffffffffffffff1681526020019081526020016000206120a890919063ffffffff16565b5061287b818360026121779092919063ffffffff16565b50808273ffffffffffffffffffffffffffffffffffffffff16600073ffffffffffffffffffffffffffffffffffffffff167fddf252ad1be2c89b69c2b068fc378daa952ba7f163c4a11628f55a4df523b3ef60405160405180910390a45050565b600080823b905060008111915050919050565b60606128fe8484600085612907565b90509392505050565b60608247101561294c576040517f08c379a000000000000000000000000000000000000000000000000000000000815260040161294390614146565b60405180910390fd5b612955856128dc565b612994576040517f08c379a000000000000000000000000000000000000000000000000000000000815260040161298b906141b2565b60405180910390fd5b6000808673ffffffffffffffffffffffffffffffffffffffff1685876040516129bd919061420e565b60006040518083038185875af1925050503d80600081146129fa576040519150601f19603f3d011682016040523d82523d6000602084013e6129ff565b606091505b5091509150612a0f828286612a1b565b92505050949350505050565b60608315612a2b57829050612a7b565b600083511115612a3e5782518084602001fd5b816040517f08c379a0000000000000000000000000000000000000000000000000000000008152600401612a729190612c8d565b60405180910390fd5b9392505050565b828054612a8e90613433565b90600052602060002090601f016020900481019282612ab05760008555612af7565b82601f10612ac957805160ff1916838001178555612af7565b82800160010185558215612af7579182015b82811115612af6578251825591602001919060010190612adb565b5b509050612b049190612b08565b5090565b5b80821115612b21576000816000905550600101612b09565b5090565b6000604051905090565b600080fd5b600080fd5b60007fffffffff0000000000000000000000000000000000000000000000000000000082169050919050565b612b6e81612b39565b8114612b7957600080fd5b50565b600081359050612b8b81612b65565b92915050565b600060208284031215612ba757612ba6612b2f565b5b6000612bb584828501612b7c565b91505092915050565b60008115159050919050565b612bd381612bbe565b82525050565b6000602082019050612bee6000830184612bca565b92915050565b600081519050919050565b600082825260208201905092915050565b60005b83811015612c2e578082015181840152602081019050612c13565b83811115612c3d576000848401525b50505050565b6000601f19601f8301169050919050565b6000612c5f82612bf4565b612c698185612bff565b9350612c79818560208601612c10565b612c8281612c43565b840191505092915050565b60006020820190508181036000830152612ca78184612c54565b905092915050565b6000819050919050565b612cc281612caf565b8114612ccd57600080fd5b50565b600081359050612cdf81612cb9565b92915050565b600060208284031215612cfb57612cfa612b2f565b5b6000612d0984828501612cd0565b91505092915050565b600073ffffffffffffffffffffffffffffffffffffffff82169050919050565b6000612d3d82612d12565b9050919050565b612d4d81612d32565b82525050565b6000602082019050612d686000830184612d44565b92915050565b612d7781612d32565b8114612d8257600080fd5b50565b600081359050612d9481612d6e565b92915050565b60008060408385031215612db157612db0612b2f565b5b6000612dbf85828601612d85565b9250506020612dd085828601612cd0565b9150509250929050565b600060208284031215612df057612def612b2f565b5b6000612dfe84828501612d85565b91505092915050565b600081519050919050565b600082825260208201905092915050565b6000819050602082019050919050565b612e3c81612caf565b82525050565b6000612e4e8383612e33565b60208301905092915050565b6000602082019050919050565b6000612e7282612e07565b612e7c8185612e12565b9350612e8783612e23565b8060005b83811015612eb8578151612e9f8882612e42565b9750612eaa83612e5a565b925050600181019050612e8b565b5085935050505092915050565b60006020820190508181036000830152612edf8184612e67565b905092915050565b600080fd5b600080fd5b600080fd5b60008083601f840112612f0c57612f0b612ee7565b5b8235905067ffffffffffffffff811115612f2957612f28612eec565b5b602083019150836001820283011115612f4557612f44612ef1565b5b9250929050565b600080600080600060808688031215612f6857612f67612b2f565b5b6000612f7688828901612d85565b9550506020612f8788828901612d85565b9450506040612f9888828901612cd0565b935050606086013567ffffffffffffffff811115612fb957612fb8612b34565b5b612fc588828901612ef6565b92509250509295509295909350565b612fdd81612b39565b82525050565b6000602082019050612ff86000830184612fd4565b92915050565b61300781612caf565b82525050565b60006020820190506130226000830184612ffe565b92915050565b60008060006060848603121561304157613040612b2f565b5b600061304f86828701612d85565b935050602061306086828701612d85565b925050604061307186828701612cd0565b9150509250925092565b600080fd5b7f4e487b7100000000000000000000000000000000000000000000000000000000600052604160045260246000fd5b6130b882612c43565b810181811067ffffffffffffffff821117156130d7576130d6613080565b5b80604052505050565b60006130ea612b25565b90506130f682826130af565b919050565b600067ffffffffffffffff82111561311657613115613080565b5b61311f82612c43565b9050602081019050919050565b82818337600083830152505050565b600061314e613149846130fb565b6130e0565b90508281526020810184848401111561316a5761316961307b565b5b61317584828561312c565b509392505050565b600082601f83011261319257613191612ee7565b5b81356131a284826020860161313b565b91505092915050565b6000602082840312156131c1576131c0612b2f565b5b600082013567ffffffffffffffff8111156131df576131de612b34565b5b6131eb8482850161317d565b91505092915050565b6000806040838503121561320b5761320a612b2f565b5b600061321985828601612cd0565b925050602061322a85828601612cd0565b9150509250929050565b61323d81612bbe565b811461324857600080fd5b50565b60008135905061325a81613234565b92915050565b6000806040838503121561327757613276612b2f565b5b600061328585828601612d85565b92505060206132968582860161324b565b9150509250929050565b600067ffffffffffffffff8211156132bb576132ba613080565b5b6132c482612c43565b9050602081019050919050565b60006132e46132df846132a0565b6130e0565b905082815260208101848484011115613300576132ff61307b565b5b61330b84828561312c565b509392505050565b600082601f83011261332857613327612ee7565b5b81356133388482602086016132d1565b91505092915050565b6000806000806080858703121561335b5761335a612b2f565b5b600061336987828801612d85565b945050602061337a87828801612d85565b935050604061338b87828801612cd0565b925050606085013567ffffffffffffffff8111156133ac576133ab612b34565b5b6133b887828801613313565b91505092959194509250565b600080604083850312156133db576133da612b2f565b5b60006133e985828601612d85565b92505060206133fa85828601612d85565b9150509250929050565b7f4e487b7100000000000000000000000000000000000000000000000000000000600052602260045260246000fd5b6000600282049050600182168061344b57607f821691505b60208210810361345e5761345d613404565b5b50919050565b7f4552433732313a20696e76616c696420746f6b656e2049440000000000000000600082015250565b600061349a601883612bff565b91506134a582613464565b602082019050919050565b600060208201905081810360008301526134c98161348d565b9050919050565b7f4552433732313a20617070726f76616c20746f2063757272656e74206f776e6560008201527f7200000000000000000000000000000000000000000000000000000000000000602082015250565b600061352c602183612bff565b9150613537826134d0565b604082019050919050565b6000602082019050818103600083015261355b8161351f565b9050919050565b7f4552433732313a20617070726f76652063616c6c6572206973206e6f7420746f60008201527f6b656e206f776e6572206e6f7220617070726f76656400000000000000000000602082015250565b60006135be603683612bff565b91506135c982613562565b604082019050919050565b600060208201905081810360008301526135ed816135b1565b9050919050565b7f4e487b7100000000000000000000000000000000000000000000000000000000600052603260045260246000fd5b7f4e487b7100000000000000000000000000000000000000000000000000000000600052601160045260246000fd5b600061365d82612caf565b91507fffffffffffffffffffffffffffffffffffffffffffffffffffffffffffffffff820361368f5761368e613623565b5b600182019050919050565b7f4552433732313a2063616c6c6572206973206e6f7420746f6b656e206f776e6560008201527f72206e6f7220617070726f766564000000000000000000000000000000000000602082015250565b60006136f6602e83612bff565b91506137018261369a565b604082019050919050565b60006020820190508181036000830152613725816136e9565b9050919050565b7f45746865722076616c75652073656e74206973206e6f7420636f727265637400600082015250565b6000613762601f83612bff565b915061376d8261372c565b602082019050919050565b6000602082019050818103600083015261379181613755565b9050919050565b7f546f6b656e206973206e6f7420666f722073616c650000000000000000000000600082015250565b60006137ce601583612bff565b91506137d982613798565b602082019050919050565b600060208201905081810360008301526137fd816137c1565b9050919050565b7f4f776e61626c653a2063616c6c6572206973206e6f7420746865206f776e6572600082015250565b600061383a602083612bff565b915061384582613804565b602082019050919050565b600060208201905081810360008301526138698161382d565b9050919050565b7f4552433732313a2061646472657373207a65726f206973206e6f74206120766160008201527f6c6964206f776e65720000000000000000000000000000000000000000000000602082015250565b60006138cc602983612bff565b91506138d782613870565b604082019050919050565b600060208201905081810360008301526138fb816138bf565b9050919050565b7f4552433732313a20617070726f766520746f2063616c6c657200000000000000600082015250565b6000613938601983612bff565b915061394382613902565b602082019050919050565b600060208201905081810360008301526139678161392b565b9050919050565b7f4552433732314d657461646174613a20696e76616c696420746f6b656e204944600082015250565b60006139a4602083612bff565b91506139af8261396e565b602082019050919050565b600060208201905081810360008301526139d381613997565b9050919050565b600081905092915050565b60006139f082612bf4565b6139fa81856139da565b9350613a0a818560208601612c10565b80840191505092915050565b6000613a2282856139e5565b9150613a2e82846139e5565b91508190509392505050565b7f4f776e61626c653a206e6577206f776e657220697320746865207a65726f206160008201527f6464726573730000000000000000000000000000000000000000000000000000602082015250565b6000613a96602683612bff565b9150613aa182613a3a565b604082019050919050565b60006020820190508181036000830152613ac581613a89565b9050919050565b7f4552433732313a207472616e736665722066726f6d20696e636f72726563742060008201527f6f776e6572000000000000000000000000000000000000000000000000000000602082015250565b6000613b28602583612bff565b9150613b3382613acc565b604082019050919050565b60006020820190508181036000830152613b5781613b1b565b9050919050565b7f4552433732313a207472616e7366657220746f20746865207a65726f2061646460008201527f7265737300000000000000000000000000000000000000000000000000000000602082015250565b6000613bba602483612bff565b9150613bc582613b5e565b604082019050919050565b60006020820190508181036000830152613be981613bad565b9050919050565b7f4552433732313a207472616e7366657220746f206e6f6e20455243373231526560008201527f63656976657220696d706c656d656e7465720000000000000000000000000000602082015250565b6000613c4c603283612bff565b9150613c5782613bf0565b604082019050919050565b60006020820190508181036000830152613c7b81613c3f565b9050919050565b7f4e487b7100000000000000000000000000000000000000000000000000000000600052601260045260246000fd5b6000613cbc82612caf565b9150613cc783612caf565b925082613cd757613cd6613c82565b5b828204905092915050565b6000613ced82612caf565b9150613cf883612caf565b925082821015613d0b57613d0a613623565b5b828203905092915050565b6000613d2182612caf565b9150613d2c83612caf565b925082613d3c57613d3b613c82565b5b828206905092915050565b6000613d5282612caf565b9150613d5d83612caf565b9250827fffffffffffffffffffffffffffffffffffffffffffffffffffffffffffffffff03821115613d9257613d91613623565b5b828201905092915050565b6000613da882612caf565b915060008203613dbb57613dba613623565b5b600182039050919050565b7f456e756d657261626c655365743a20696e646578206f7574206f6620626f756e60008201527f6473000000000000000000000000000000000000000000000000000000000000602082015250565b6000613e22602283612bff565b9150613e2d82613dc6565b604082019050919050565b60006020820190508181036000830152613e5181613e15565b9050919050565b7f4e487b7100000000000000000000000000000000000000000000000000000000600052603160045260246000fd5b7f456e756d657261626c654d61703a20696e646578206f7574206f6620626f756e60008201527f6473000000000000000000000000000000000000000000000000000000000000602082015250565b6000613ee3602283612bff565b9150613eee82613e87565b604082019050919050565b60006020820190508181036000830152613f1281613ed6565b9050919050565b600081519050919050565b600082825260208201905092915050565b6000613f4082613f19565b613f4a8185613f24565b9350613f5a818560208601612c10565b613f6381612c43565b840191505092915050565b6000608082019050613f836000830187612d44565b613f906020830186612d44565b613f9d6040830185612ffe565b8181036060830152613faf8184613f35565b905095945050505050565b600081519050613fc981612b65565b92915050565b600060208284031215613fe557613fe4612b2f565b5b6000613ff384828501613fba565b91505092915050565b7f4552433732313a206d696e7420746f20746865207a65726f2061646472657373600082015250565b6000614032602083612bff565b915061403d82613ffc565b602082019050919050565b6000602082019050818103600083015261406181614025565b9050919050565b7f4552433732313a20746f6b656e20616c7265616479206d696e74656400000000600082015250565b600061409e601c83612bff565b91506140a982614068565b602082019050919050565b600060208201905081810360008301526140cd81614091565b9050919050565b7f416464726573733a20696e73756666696369656e742062616c616e636520666f60008201527f722063616c6c0000000000000000000000000000000000000000000000000000602082015250565b6000614130602683612bff565b915061413b826140d4565b604082019050919050565b6000602082019050818103600083015261415f81614123565b9050919050565b7f416464726573733a2063616c6c20746f206e6f6e2d636f6e7472616374000000600082015250565b600061419c601d83612bff565b91506141a782614166565b602082019050919050565b600060208201905081810360008301526141cb8161418f565b9050919050565b600081905092915050565b60006141e882613f19565b6141f281856141d2565b9350614202818560208601612c10565b80840191505092915050565b600061421a82846141dd565b91508190509291505056fe4552433732313a207472616e7366657220746f206e6f6e20455243373231526563656976657220696d706c656d656e746572a2646970667358221220f5be158eaaa48c6adc1f5743bf9dce0fda6dc46c051db404034dc033a1df34ec64736f6c634300080d0033",
  "immutableReferences": {},
  "source": "// SPDX-License-Identifier: UNLICENSED\npragma solidity ^0.8.0;\npragma abicoder v2;\n\nimport \"./Ownable.sol\";\nimport \"./ERC721.sol\";\n\nimport \"./utils/SafeMath.sol\";\nimport \"./utils/Address.sol\";\nimport \"./utils/EnumerableSet.sol\";\nimport \"./utils/EnumerableMap.sol\";\nimport \"./utils/Strings.sol\";\n\n/**\n * @title LushVault contract\n * @dev Extends ERC721 Non-Fungible Token Standard basic implementation\n */\ncontract LushVault is ERC721, Ownable {\n    using SafeMath for uint256;\n    using Address for address;\n    using EnumerableSet for EnumerableSet.UintSet;\n    using EnumerableMap for EnumerableMap.UintToAddressMap;\n    using Strings for uint256;\n\n    mapping (uint256 => uint256) public tokenPrices;\n\n    EnumerableSet.UintSet private tokensForSale;\n\n    constructor(string memory name, string memory symbol) ERC721(name, symbol) {\n\n    }\n\n\n/* Consider adding additional function to allow withdrawal to an address other than the contract owner */\n    function withdraw() public onlyOwner {\n        uint balance = address(this).balance;\n        payable(msg.sender).transfer(balance);\n    }\n\n    function setBaseURI(string memory baseURI) public onlyOwner {\n        _setBaseURI(baseURI);\n    }\n\n    function setTokenPrice (uint256 tokenPrice, uint256 tokenId) public onlyOwner {\n        tokenPrices[tokenId] = tokenPrice;\n        tokensForSale.add(tokenId);\n    }\n\n    function updateTokenPrice (uint256 tokenPrice, uint256 tokenId) public onlyOwner {\n        tokenPrices[tokenId] = tokenPrice;\n    }\n\n    function getTokenPrice (uint256 tokenId) public view returns(uint256) {\n        return tokenPrices[tokenId];\n    }\n\n    function delistToken (uint256 tokenId) public onlyOwner {\n        tokensForSale.remove(tokenId);\n    }\n\n    function buyToken (uint256 tokenId) public payable {\n        uint256 tokenPrice = tokenPrices[tokenId];\n        require(tokenPrice <= msg.value, \"Ether value sent is not correct\");\n        require(tokensForSale.contains(tokenId), \"Token is not for sale\");\n        tokensForSale.remove(tokenId);\n        _safeMint(_msgSender(), tokenId);\n    }\n\n    function getTokensForSale () public view returns (uint256[] memory) {\n        uint256[] memory tokenReturn = new uint256[](tokensForSale.length());\n        for (uint i = 0; i < tokensForSale.length(); i++) {\n            tokenReturn[i] = tokensForSale.at(i);\n        }\n        return tokenReturn;\n    }\n\n    function isTokenForSale (uint256 tokenId) public view returns (bool) {\n        return tokensForSale.contains(tokenId);\n    }\n\n}",
  "sourcePath": "/Users/lucas/Documents/LushVault-Contracts/contracts/LushVault.sol",
  "compiler": {
    "name": "solc",
    "version": "0.8.13+commit.abaa5c0e.Emscripten.clang"
  },
  "schemaVersion": "3.4.7",
  "updatedAt": "2022-07-10T19:45:01.021Z",
  "networkType": "ethereum",
  "devdoc": {
    "details": "Extends ERC721 Non-Fungible Token Standard basic implementation",
    "kind": "dev",
    "methods": {
      "approve(address,uint256)": {
        "details": "See {IERC721-approve}."
      },
      "balanceOf(address)": {
        "details": "See {IERC721-balanceOf}."
      },
      "baseURI()": {
        "details": "Returns the base URI set via {_setBaseURI}. This will be automatically added as a prefix in {tokenURI} to each token's URI, or to the token ID if no specific URI is set for that token ID."
      },
      "getApproved(uint256)": {
        "details": "See {IERC721-getApproved}."
      },
      "isApprovedForAll(address,address)": {
        "details": "See {IERC721-isApprovedForAll}."
      },
      "name()": {
        "details": "See {IERC721Metadata-name}."
      },
      "owner()": {
        "details": "Returns the address of the current owner."
      },
      "ownerOf(uint256)": {
        "details": "See {IERC721-ownerOf}."
      },
      "safeTransferFrom(address,address,uint256)": {
        "details": "See {IERC721-safeTransferFrom}."
      },
      "safeTransferFrom(address,address,uint256,bytes)": {
        "details": "See {IERC721-safeTransferFrom}."
      },
      "setApprovalForAll(address,bool)": {
        "details": "See {IERC721-setApprovalForAll}."
      },
      "supportsInterface(bytes4)": {
        "details": "See {IERC165-supportsInterface}. Time complexity O(1), guaranteed to always use less than 30 000 gas."
      },
      "symbol()": {
        "details": "See {IERC721Metadata-symbol}."
      },
      "tokenByIndex(uint256)": {
        "details": "See {IERC721Enumerable-tokenByIndex}."
      },
      "tokenOfOwnerByIndex(address,uint256)": {
        "details": "See {IERC721Enumerable-tokenOfOwnerByIndex}."
      },
      "tokenURI(uint256)": {
        "details": "See {IERC721Metadata-tokenURI}."
      },
      "totalSupply()": {
        "details": "See {IERC721Enumerable-totalSupply}."
      },
      "transferFrom(address,address,uint256)": {
        "details": "See {IERC721-transferFrom}."
      },
      "transferOwnership(address)": {
        "details": "Transfers ownership of the contract to a new account (`newOwner`). Can only be called by the current owner."
      }
    },
    "title": "LushVault contract",
    "version": 1
  },
  "userdoc": {
    "kind": "user",
    "methods": {},
    "version": 1
  }
}